:020000040800F2
:100000001869002075020008AB100008490D0008AF
:10001000A9100008730A00080F2000080000000063
:10002000000000000000000000000000DD010008EA
:10003000770C00080000000021020008451D0008A0
:100040008F0200088F0200088F0200088F0200084C
:100050008F0200088F0200088F0200088F0200083C
:100060008F0200088F0200088F0200088F0200082C
:100070008F020008750A00088F0200088F0200082E
:100080008F0200088F0200088F0200088F0200080C
:100090008F0200088F0200088F0200088F020008FC
:1000A0008F0200088F0200088F0200088F020008EC
:1000B000A91D00088F0200088F0200088F020008A7
:1000C0008F0200088F0200088F0200088F020008CC
:1000D0008F0200088F0200088F0200088F020008BC
:1000E0008F0200088F0200088F0200088F020008AC
:1000F0008F0200088F0200088F0200088F0200089C
:100100008F0200088F0200088F0200088F0200088B
:100110008F0200088F0200088F0200088F0200087B
:100120008F0200088F0200088F0200088F0200086B
:1001300000F002F800F042F80AA090E8000C8244B7
:100140008344AAF10107DA4501D100F037F8AFF294
:10015000090EBAE80F0013F0010F18BFFB1A43F0A5
:1001600001031847384A0000584A0000103A24BFDB
:1001700078C878C1FAD8520724BF30C830C144BF0C
:1001800004680C607047000000230024002500264E
:10019000103A28BF78C1FBD8520728BF30C148BFEA
:1001A0000B607047642900F0EF80732900F07E82B5
:1001B000002070471FB51FBD10B510BD00F0E8FA54
:1001C0001146FFF7F7FF02F087F900F006FB03B4D2
:1001D000FFF7F2FF03BC00F009FB0000224B196897
:1001E0000868B0E8F00F80F30988BFF36F8F4FF015
:1001F000000080F311884EF00D0E704700000000E3
:1002000006480068006880F3088862B661B6BFF3EC
:100210004F8FBFF36F8F00DF00BF00BF08ED00E01E
:10022000EFF30980BFF36F8F0F4B1A6820E9F00FCF
:10023000106008B54FF0500080F31188BFF34F8F66
:10024000BFF36F8F03F0B2FA4FF0000080F3118814
:10025000BDE8084019680868B0E8F00F80F3098825
:10026000BFF36F8F704700BF00000020EFF30580E1
:10027000704700000948804709480047FEE7FEE74D
:10028000FEE7FEE7FEE7FEE7FEE7FEE7FEE7FEE746
:1002900004480549054A064B70470000591D0008EF
:1002A000310100081863002018690020186500203B
:1002B000186500200FB4044910B503AA029800F095
:1002C000F9F910BC5DF814FBBC0000202DE9F041E9
:1002D0000E460446002020622046E168884730B37D
:1002E000252805D0D4E901219047206A401CF2E777
:1002F000E168204600278847050018D0A5F1410095
:10030000192802D820354FF4006732462946204686
:100310002760FFF747FF40B1012804D0F61D26F003
:1003200007060836D8E7361DD6E72846DAE7206AFA
:10033000BDE8F08170B50C460546012A05D0287845
:10034000800600D5EA69002302E0012305E05B1C7A
:10035000934202D2E05C0028F9D1A869E618C01ADD
:10036000A861286A184428622846AFF3008004E098
:10037000D5E9012114F8010B9047B442F8D328467F
:10038000AFF3008070BD00002DE9F0410646002467
:1003900010687529314616A510D0AFF300800028EB
:1003A00002DA404213A507E031688A0701D512A599
:1003B00002E0490704D511A5012401E0AFF3008054
:1003C00000210A2206F1240709E0B0FBF2FCB0FB91
:1003D000F2F302FB1C00303078541846491C002808
:1003E000F3D123462A463046BDE8F04100F0DAB8A2
:1003F000000000002D0000002B0000002000000085
:1004000040EA010310B59B070FD1042A0DD310C891
:1004100008C9121F9C42F8D020BA19BA884201D9E3
:10042000012010BD4FF0FF3010BD1AB1D30703D02B
:10043000521C07E0002010BD10F8013B11F8014BE1
:100440001B1B07D110F8013B11F8014B1B1B01D1FD
:10045000921EF1D1184610BD40EA0103024630B5A4
:100460009B0710D14FF0013400E008C208C91D1BE2
:100470009D4315EAC41FF8D013F0FF0102F8011BD9
:100480000DD01B0AF8E711F8013B002B02F8013BE5
:1004900005D011F8013B002B02F8013BF3D130BD30
:1004A000032A40F2308010F0030C00F0158011F8A0
:1004B000013BBCF1020F624498BF11F801CB00F878
:1004C000013B38BF11F8013BA2F1040298BF00F8CC
:1004D00001CB38BF00F8013B11F0030300F0FC80B2
:1004E000083AC0F0088051F8043B083A51F804CBB0
:1004F000A0E80810F5E7121D5CBF51F8043B40F876
:10050000043BAFF30080D20724BF11F8013B11F880
:1005100001CB48BF11F8012B24BF00F8013B00F8C4
:1005200001CB48BF00F8012B704701F0FF031146D3
:1005300001B543EA032242EA024200F001F901BD9B
:1005400002F0FF0343EA032242EA024200F0F8B855
:100550004FF0000200B5134694469646203922BF5C
:10056000A0E80C50A0E80C50B1F12001BFF4F7AFA7
:10057000090728BFA0E80C5048BF0CC05DF804EB89
:10058000890028BF40F8042B08BF704748BF20F8F7
:10059000022B11F0804F18BF00F8012B70477047F5
:1005A000704770472DE9F0470D469946924604463C
:1005B00000F124080168880604D5E06921F01001E3
:1005C000216000E00120A84201DD471B00E0002778
:1005D000A1697A1902EB0900081AA0612078C00607
:1005E00002D42046AFF30080002608E0D4E90121C0
:1005F0001AF806009047206A401C761C20624E457F
:10060000F4DB2078C0060AD52046AFF3008006E070
:10061000D4E9012130209047206A401C2062381E16
:10062000A7F10107F4DC07E0D4E9012118F805007F
:100630009047206A401C2062281EA5F10105F3DCCA
:100640002046AFF300802078000602D50220BDE8E6
:10065000F0870120FBE7000001694A1C026108786D
:10066000704700B58FB0CDE90131002105910549F2
:100670007944CDE9031011466846FFF727FE0FB015
:1006800000BD0000E5FFFFFF10B5436913B1AFF3F4
:10069000008001E0FFF74EFE012010BD127800F14E
:1006A00024010A7000224A700122EDE711684FF020
:1006B000FF32E9E7074B70B50D467B44FFF7D1FFEA
:1006C0000446284600F060F810B14FF0FF3070BDCE
:1006D000204670BDFF1D000010B5203AC0F00B8011
:1006E000B1E81850203AA0E81850B1E81850A0E836
:1006F0001850BFF4F5AF5FEA027C24BFB1E8185090
:10070000A0E8185044BF18C918C0BDE810405FEAFF
:10071000827C24BF51F8043B40F8043B08BF70477B
:10072000D20728BF31F8023B48BF11F8012B28BF80
:1007300020F8023B48BF00F8012B70474FF0000241
:100740000429C0F0128010F0030C3FF403AFCCF189
:10075000040CBCF1020F18BF00F8012BA8BF20F851
:10076000022BA1EB0C01FFF7F5BE5FEAC17C24BFB1
:1007700000F8012B00F8012B48BF00F8012B70474F
:1007800000487047B4620020007B00F08000704792
:100790007546FFF7F5FFAE4605006946534620F063
:1007A0000700854618B020B5FFF772FDBDE8204070
:1007B0004FF000064FF000074FF000084FF0000B1D
:1007C00021F00701AC46ACE8C009ACE8C009ACE8D0
:1007D000C009ACE8C0098D46704710B50446AFF3B8
:1007E00000802046BDE81040FFF7F1BC0149182009
:1007F000ABBEFEE7260002007047000038B5044695
:100800001B480D46221A0115C314844223D009DC6B
:10081000184822180ED08A420FD09A4211D10121D5
:1008200010200CE08A4219D09A421AD0B2F5406FDB
:1008300007D119E00121042001E00121082000F086
:1008400091FCADF8005004208DF803006946204665
:1008500000F012FA38BD01212020F0E701214020EC
:10086000EDE701218020EAE701210802E7E7000027
:100870000014014000F8FEBF2DE9F0471E46DDE9F7
:100880000859174688468246022400F083FA4946F2
:100890002846FFF7B3FF0021504600F044F8E0BBC4
:1008A0000121504600F03FF8A0F50541833938D1C9
:1008B0000221504600F037F8B0F5004F31D1032146
:1008C000504600F030F8A0F5FE41FF3929D148F438
:1008D000004542460121504600F051F83A460221B7
:1008E000504600F04CF832460321504600F047F8DD
:1008F0000121504600F017F8A8420FD102215046BE
:1009000000F011F8B84209D10321504600F00BF86D
:10091000B04203D10020BDE8F08702E0641EE4B2DB
:10092000D7D20120F7E770B50D46044600F0D6FA9D
:10093000902040EA4400C0B200F09CFA00F010FBA6
:10094000284600F097FA00F00BFB00F0C7FA912060
:1009500040EA4400C0B200F08DFA00F001FB012033
:1009600000F052FA0502012000F04EFA40EA0504B8
:1009700000F0D4FA032001F087FD204670BD70B569
:1009800014460E46054600F0A9FA902040EA4500BC
:10099000C0B200F06FFA00F0E3FA304600F06AFAF5
:1009A00000F0DEFA200A00F065FA00F0D9FAE0B2B1
:1009B00000F060FA00F0D4FA00F0B0FABDE8704040
:1009C000032001F061BD00001CB502F021FC0122F2
:1009D00000210A2003F08AFA114C206310B9114853
:1009E000FFF768FC0E4902202031CDE90001002309
:1009F00032220DA10F4803F029FC094903202831B8
:100A0000CDE9000100234FF480720BA1104803F0E0
:100A10001DFCE06902F08CFDBDE81C4002F034BC16
:100A2000C4000020484B00084C6564305F5461737B
:100A30006B000000691000085573617274335F50D9
:100A40004D5F4465636F64655F5461736B000000C4
:100A50001120000810B54FF4407000F027FB01F0A2
:100A6000D3FC00F0D3FA00F0DFFBBDE8104001F04A
:100A7000C1B9FEE738B500254FF400742046009553
:100A800000F0CCF8002820D0204600F03DF82046A9
:100A900000F046F80D4C0E486B4621780A2200689B
:100AA00003F0FCFA0A2802D00AA0FFF703FC256035
:100AB000656025810098002807D012494FF08050CA
:100AC0000860BFF34F8FBFF36F8F38BDA85E002063
:100AD000F4000020746865726520776173206E6F82
:100AE0007420656E6F756768206672656520737027
:100AF00061636520696E207468652062756666654D
:100B00007220210004ED00E0C10002D50249086016
:100B100070470249486070470404024000000240E8
:100B2000C10002D502490860704702494860704719
:100B3000040402400000024001684FF6FE721140BA
:100B400001600021016041608160C1603149314A2A
:100B50000839904203D1486840F00F0006E02D4A62
:100B60001432904204D1486840F0F0004860704769
:100B7000284A2832904203D1486840F47060F5E773
:100B8000244A3C32904203D1486840F47040EDE77B
:100B9000204A5032904203D1486840F47020E5E783
:100BA0001C4A6432904203D1486840F47000DDE78B
:100BB000184A7832904203D1486840F07060D5E717
:100BC000154A111F904203D1086840F00F0006E05B
:100BD000114A1432904204D1086840F0F0000860D5
:100BE00070470D4A2832904203D1086840F4706083
:100BF000F5E7094A3C32904203D1086840F470405E
:100C0000EDE7054A50329042EAD1086840F470207E
:100C1000E5E7000008000240080402400246002008
:100C2000D10001D5034900E003490968114200D011
:100C300001207047000402400000024030B5026805
:100C400047F6F0739A430C6A8B682343D1E9044555
:100C50002C4323438C692343CC6923434C6A2343AD
:100C60008C6A234313430360CA6842600A68826047
:100C70004968C16030BD7047F0B5CC78002204F0FF
:100C80000F03E40601D58C7823430C784FF00F0C4A
:100C900014F0FF0F4FF0010E1BD005680E880EFAFE
:100CA00002F42640A64210D196000CFA06F725EA77
:100CB000070703FA06F5CE783D43282E02D0482ECA
:100CC00002D002E0446100E00461521C082AE5D32E
:100CD00005600A88FF2A1CD94468002202F1080630
:100CE0000EFA06F50E882E40AE420ED196000CFA92
:100CF00006F7BC4303FA06F7CE783C43282E00D112
:100D00004561CE78482E00D10561521C082AE5D3F2
:100D10004460F0BD016170474FF6FF710180022110
:100D200081700421C17070471CB513460C4608221F
:100D30000449CDE90012014622460120FFF79CFD3F
:100D40001CBD000000100140014801210160FDE7C9
:100D50007800002070B50D4C0025C4F898510C485F
:100D6000016821F070410160016841F0405101606B
:100D7000C4F89C51022004F5CC7401F085FB0120DD
:100D80002060022001F080FB256070BD00802142C0
:100D9000000C014038B50121082000F0E3F9C02023
:100DA000ADF8000014208DF803000320054C8DF8E9
:100DB000020069462046FFF75FFFC0212046FFF78B
:100DC000A9FF38BD000C014070B50D4C0026C4F8D9
:100DD00098610C48016821F070410160016841F0A0
:100DE000405101600125C4F89C51022004F5CC74E7
:100DF00001F04AFB2560022001F046FB266070BD31
:100E000000802142000C01402DE9F047814617483F
:100E10000024016821F070410160016841F0004147
:100E20000160134E254627464FF00108C6F8987119
:100E3000022001F029FBC6F898816006040ED6F85E
:100E40001C0108B1641CE4B2012001F01DFB6D1C03
:100E5000EDB2082DEAD3B9F1000F04D0FFF77AFF05
:100E60002046BDE8F087FFF7AFFFF9E7000C01402F
:100E7000008021422DE9F04105461648016821F025
:100E800070410160016841F040510160124E00273D
:100E9000C6F898713C464FF00108280602D5C6F8FE
:100EA0009C8101E0C6F89C716806050E022001F0E5
:100EB000EBFAC6F89881022001F0E6FAC6F89871BC
:100EC000022001F0E1FA641CE4B2082CE5D3BDE88D
:100ED000F0810000000C01400080214270B50D48F7
:100EE000016821F070410160016841F040510160EA
:100EF000094C0120C4F89C01C4F89801042004F5B1
:100F0000CC7401F0C1FA00256560042001F0BCFA40
:100F1000256070BD000C0140008021420E4810B5D4
:100F2000016821F070410160016841F040510160A9
:100F30000A4C0020C4F89801C4F89C01042004F570
:100F4000CC7401F0A1FA012020606060BDE810407F
:100F5000042001F099BA0000000C014000802142F9
:100F600070B513480024016821F0704101600168E8
:100F700041F0004101600F4D0126C5F89C613046EB
:100F800001F082FAC5F89861012001F07DFA07E0CE
:100F9000641CE4B2FA2C03D9FFF7C0FF012070BD36
:100FA000D5F81C010028F3D1C5F8980170BD0000E8
:100FB000000C01400080214238B50121042000F0DE
:100FC000D1F83020ADF8000010208DF80300032088
:100FD000074C8DF8020069462046FFF74DFE302190
:100FE0002046FFF797FE03490020C1F8980138BD5D
:100FF0000008014000002342AFF3008002494AF696
:10100000AA2008607047000000300040F8B50121B8
:10101000C02000F0A7F840F2FF76ADF80060102580
:101020000F4F8DF8035003248DF80240694638466F
:10103000FFF722FE31463846FFF76CFE4020ADF840
:1010400000008DF803508DF80240064C694620469A
:10105000FFF712FE40212046FFF75CFEF8BD0000BE
:10106000001C014000180140084C4FF4FA75D4F8F8
:10107000A40148B10021C4F8A41105A0FFF71AF992
:10108000284602F019FAF2E70121F4E70080234232
:101090007461736B20302069732072756E6E696E97
:1010A00067210D0A00000000FEE77047024908436F
:1010B00002490860704700000000FA050CED00E0EE
:1010C0002DE9F047FFF766FE4FF6FF784FF48749AA
:1010D000424600214846FFF727FE00240D4D0E4FE3
:1010E000022688B13E60012001F0B2F9424600219B
:1010F000484600F0EBFF50B13E60012001F0A8F936
:10110000BDE8F047FFF758BFC5F89C41EBE7C5F8CD
:10111000A041F2E70080234278000020044A002921
:10112000516901D0014300E08143516170470000E3
:1011300000100240044A0029D16901D0014300E0B7
:101140008143D1617047000000100240044A002929
:10115000116901D0014300E0814311617047000033
:1011600000100240044A0029916901D0014300E0C7
:10117000814391617047000000100240044A002939
:10118000D16801D0014300E08143D1607047000085
:101190000010024030B5204A5168204B11F00C017C
:1011A00003D0042901D0082901D0036012E051685E
:1011B000536801F470114FF0020413F4803F04EB04
:1011C000914102D053689B0301D5154B00E0134BAE
:1011D0005943016051680F2303EA1111114B5C5C04
:1011E0000168E14041605468072505EA14241C5D4C
:1011F00021FA04F48460546805EAD4241B5DD940C4
:10120000C1605268032303EA9232064B1B1F9A5CAB
:10121000B1FBF2F1016130BD0010024000127A0012
:1012200000093D009800002038B501210820FFF793
:1012300099FF4FF40054ADF8004010208DF80300E2
:101240000320064D8DF8020069462846FFF714FD7D
:1012500021462846FFF75EFD38BD0000000C014026
:101260002DE9F047154F0446DDF8209038781D46EB
:101270001646884608B900F039FF7869A04219D9A6
:10128000EFF31180202181F311880C4A04EB440113
:1012900002EBC10134B10022C1F860800A67C1E9E4
:1012A0001965CA66C0B280F31188C1F87490002035
:1012B000BDE8F0874FF0FF30FAE70000445400200B
:1012C0002DE9F047154F0446DDF8209038781D468B
:1012D0001646884608B900F009FF3869A04219D9B6
:1012E000EFF31180202181F311880C4A04EB4401B3
:1012F00002EBC10134B1C1F81880C1E907650022D1
:101300008A624A62C0B280F31188C1F82C90002032
:10131000BDE8F0874FF0FF30FAE7000044540020AA
:101320002DE9F0471B4D0446164628780F4608B9AC
:1013300000F0DCFE04EB440005EBC005B846D5E93F
:101340001B94002760354C4511D9A868071BB7428C
:1013500000D3374668683A4601194046FFF7A0F8BF
:10136000A868F61B3C44B844A04200D10024A9EB75
:101370000400B04200D206463EB168683246011908
:101380004046FFF78DF83744344407B12C613846A6
:10139000BDE8F087445400202DE9F04188461A4901
:1013A00000EB400001EBC0041646A06A656A1834E1
:1013B000A84222D8A1684F1B791EB14207D36068AA
:1013C00041462844FFF76CF8A819E06012E0084491
:1013D000B04216D3B742F2D860683A462844414634
:1013E000FFF75EF8F21B154608EB07016068FFF790
:1013F00057F8E5600120BDE8F081401B401EB04277
:10140000DDD20020F7E7000044540020084810B562
:101410000168054B054A084600F04AF8BDE810404F
:101420004FF0805000F00ABB79230008F04A000812
:101430007C00002070B5EFF31184202080F3118828
:101440001A48A0F12C0501466A6804E042F08003C6
:1014500001F8013BD2097F2AF8D801F8012BAA68CC
:1014600004E042F0800301F8013BD2097F2AF8D85A
:1014700001F8012B2A6904E042F0800301F8013BE6
:10148000D2097F2AF8D801F8012B022201F8012B9A
:10149000182200F0C5FEE0B280F31188686A0028C7
:1014A00002D0BDE87040004770BD0000285D0020FC
:1014B0002DE9F843984615460E46074600244FF49A
:1014C00080630D4A0DA101200094FFF7F9FE082367
:1014D0000C4A0AA101200094FFF7C2FE0A484FF00F
:1014E00080510161094949684760C0E90261C0E96A
:1014F00008580470BDE8F883FC58002053797356EF
:1015000069657700B0000020FC5C0020001000E05E
:1015100010B5EFF31184202080F3118804481122C4
:10152000014600F07DFEE0B280F3118810BD00009E
:10153000285D002010B50146EFF31184202080F3D0
:1015400011880C48A0F12C021269891A8A080146F8
:1015500004E042F0800301F8013BD2097F2AF8D869
:1015600001F8012B082200F05BFEE0B280F3118845
:1015700010BD0000285D002010B50146EFF3118476
:10158000202080F311880C48A0F12C021269891ADE
:101590008A08014604E042F0800301F8013BD209C9
:1015A0007F2AF8D801F8012B042200F039FEE0B2BE
:1015B00080F3118810BD0000285D002010B50146A1
:1015C000EFF31184202080F311880C48A0F12C0245
:1015D0001269891A8A08014604E042F0800301F882
:1015E000013BD2097F2AF8D801F8012B062200F02E
:1015F00017FEE0B280F3118810BD0000285D0020C6
:101600000A4810B5006A48B1006838B180470A46F8
:101610000146BDE810400D2000F02AB8044841689A
:10162000BDE810400C2000F005B80000FC5C002074
:10163000001000E070B50246EFF31184202080F323
:1016400011880A48054604E041F0800300F8013B98
:10165000C9097F29F8D800F8011B0146284600F087
:10166000DFFDE0B280F3118870BD0000285D00202E
:1016700070B50546EFF31184202080F311880F48E0
:10168000034604E041F0800600F8016BC9097F2998
:10169000F8D800F8011B04E042F0800100F8011BBB
:1016A000D2097F2AF8D800F8012B01462A461846AD
:1016B00000F0B6FDE0B280F3118870BD285D002017
:1016C0002DE9F0410646EFF31184202080F31188C4
:1016D0001448054604E041F0800700F8017BC90981
:1016E0007F29F8D800F8011B04E042F0800100F8DF
:1016F000011BD2097F2AF8D800F8012B04E043F03F
:10170000800100F8011BDB097F2BF8D800F8013BB2
:1017100001463246284600F083FDE0B280F311888E
:10172000BDE8F081285D00202DE9F0410646EFF389
:101730001184202585F311880698194D2F4604E061
:1017400041F0800C07F801CBC9097F29F8D839701E
:10175000791C04E042F0800701F8017BD2097F2A5E
:10176000F8D801F8012B04E043F0800201F8012BC6
:10177000DB097F2BF8D801F8013B04E040F0800240
:1017800001F8012BC0097F28F8D801F8010B324677
:10179000284600F045FDE0B280F31188BDE8F081F5
:1017A000285D00202DE9F0410746DDE90665EFF3ED
:1017B0001184202080F311881E48844604E041F003
:1017C000800E0CF801EBC9097F29F8D88CF80010BD
:1017D0000CF1010104E042F0800C01F801CBD209C8
:1017E0007F2AF8D801F8012B04E043F0800201F8C9
:1017F000012BDB097F2BF8D801F8013B04E046F010
:10180000800201F8012BF6097F2EF8D801F8016B50
:1018100004E045F0800201F8012BED097F2DF8D896
:1018200001F8015B3A4600F0FBFCE0B280F311885E
:10183000BDE8F081285D002010B50246EFF3118469
:10184000202080F311880448014600F0E9FCE0B252
:1018500080F3118810BD0000285D002070B51B4981
:101860004A68002A30D0002103E01269002A2BD0F8
:10187000491C8142F9D3EFF31185202181F31188AE
:1018800013490C4604E040F0800301F8013BC00915
:101890007F28F8D801F8010B0B46906804E040F06F
:1018A000800103F8011BC0097F28F8D8187011685F
:1018B000581C802200F04EFC01461622204600F003
:1018C000AFFCE8B280F3118870BD0000A8000020D2
:1018D000285D0020054810B54468002C04D0E0685D
:1018E00000B180472469F8E710BD0000A80000207F
:1018F00010B5EFF31184202080F311880B4A0A48B9
:101900000146127804E042F0800301F8013BD2095D
:101910007F2AF8D801F8012B1B2200F081FCE0B2ED
:1019200080F3118810BD0000285D0020A800002071
:1019300070B5EFF31185202181F31188074C014622
:101940008022204600F006FC01460E22204600F0D0
:1019500067FCE8B280F3118870BD0000285D0020AC
:101960002DE9F0410446EFF31186202080F3118821
:101970002B492068A1F12C070D463A69801A80088E
:1019800004E040F0800201F8012BC0097F28F8D85C
:1019900001F8010B0B46A06804E040F0800103F859
:1019A000011BC0097F28F8D81870581C20226168D4
:1019B00000F0D0FB01460922284600F031FC2068E7
:1019C0003A692946801A800804E040F0800201F854
:1019D000012BC0097F28F8D801F8010BE06804E06A
:1019E00040F0800201F8012BC0097F28F8D801F8E7
:1019F000010B206904E040F0800201F8012BC009CE
:101A00007F28F8D801F8010B002001F8010B1522FE
:101A1000284600F005FCF0B280F31188BDE8F081A3
:101A2000285D00200448006A002803D04068002890
:101A300000D0004770470000FC5C002001490861AD
:101A400070470000FC5C002002490969401A8008C8
:101A500070470000FC5C002070B5294D28780028F4
:101A60004CD101202870EFF31184202686F31188D1
:101A70000A222449FFF790FCE0B280F311880A2083
:101A8000FFF7DAFEEFF3118486F3118805F12C00DD
:101A900001466A6804E042F0800301F8013BD20984
:101AA0007F2AF8D801F8012BAA6804E042F08003ED
:101AB00001F8013BD2097F2AF8D801F8012B2A69E5
:101AC00004E042F0800301F8013BD2097F2AF8D8F4
:101AD00001F8012B022201F8012B182200F0A0FBD3
:101AE000E0B280F31188686A00B18047FFF788FD93
:101AF000FFF798FFBDE87040FFF7FABE70BD000029
:101B0000FC5C0020D44A000870B5EFF3118420205B
:101B100080F311880748A0F12C05297829B10B2200
:101B2000014600F07DFB00202870E0B280F31188B0
:101B300070BD0000285D002070B5EFF311852021F5
:101B400081F311880A4C01468022204600F002FBF6
:101B5000012100F8011B002100F8011B01461A2297
:101B6000204600F05DFBE8B280F3118870BD0000F4
:101B7000285D00202DE9F8430D46174680461E4695
:101B8000052213A12846089CFEF73AFC00281DD028
:101B9000114A1168082904D3BDE8F8430F48FFF73C
:101BA000CBBF01EB8100DFF838C0491C33464CF84D
:101BB00020800CEB8000C0E90364C0E9015711608C
:101BC0003A4629464046009400F046F8BDE8F883BE
:101BD00049444C4500000000B8000020F84A0008C5
:101BE000085E002070B51A4C2268002A2FD0002110
:101BF000184B06E001EB810553F82550854202D0D1
:101C0000491C9142F6D3501E814204D101EB810060
:101C100003EB800015E0914219D202EB820003EB46
:101C2000800001EB810150F8142D43F8212003EBD3
:101C3000810142684A6082688A60C268CA6002693B
:101C40000A611421FEF784FC2068401E206070BDEC
:101C5000B8000020085E00202DE9F04186B00D4656
:101C600004461F46164614216846DDF83080FEF70C
:101C70006FFC8DE8F0016846FFF772FE06B0BDE824
:101C8000F08100000CB50022264800920192016804
:101C900041F4803101604FF4A063016801F4003128
:101CA00001910099491C0091019911B9009999423B
:101CB000F3D10168890333D5012101911A490A68DA
:101CC00042F010020A600A6822F003020A600A6801
:101CD00042F002020A604168416041684160416827
:101CE00041F480614160416821F47C1141604168A8
:101CF00041F4E8114160016841F0807101600168C0
:101D00008901FCD5416821F003014160416841F03F
:101D1000020141604168C1F381010229FAD10CBD81
:101D200001920CBD00100240002002404FF0E02163
:101D30000428086903D020F004000861704740F0CF
:101D40000400FAE710B502F0E1FB012803D0BDE87A
:101D5000104001F0F1BD10BD0F4810B5016841F011
:101D60000101016041680D4A1140416001680C4A5F
:101D700011400160016821F480210160416821F473
:101D8000FE0141604FF41F018160FFF77BFF0549B1
:101D90004FF00060086010BD001002400000FFF826
:101DA000FFFFF6FE08ED00E010B501218C0720468C
:101DB00000F013F8002809D00121204600F00AF8AD
:101DC000FFF71AF902480168491C016010BD0000C4
:101DD000C0000020C9430182704702460020138AD8
:101DE00092890B4202EA010202D0002A00D00120AF
:101DF0007047000030B591B001210420FFF7B2F91F
:101E000001214804FFF796F901210846FFF786F9FA
:101E10000FA8FEF781FF0424ADF83C401820264DA2
:101E20008DF83F000FA92846FEF726FF0821ADF8E0
:101E30003C108DF83F400FA92846FEF71DFF1F4DAF
:101E4000284600F049F80BA800F0D6F800244FF41B
:101E500016500B90ADF834400C20ADF83040ADF882
:101E60003600ADF83240ADF838400BA9284600F0F6
:101E70006DF801224021284600F026F8104D284632
:101E8000FEF75AFE0D486946001D00900D48CDE949
:101E900001042815CDE903048020CDE905042020A4
:101EA000CDE907404FF44050CDE909042846FEF73C
:101EB000C5FE11B030BD00000008014000440040E4
:101EC0006C000240B25E0020002A828A01D00A43E0
:101ED00000E08A4382827047174910B588420AD1D0
:101EE00001218C032046FFF749F92046BDE8104048
:101EF0000021FFF743B91149884202D101214C0466
:101F000010E00F49884202D101218C040AE00D49FA
:101F1000884202D10121CC0404E00B4988420AD155
:101F200001210C052046FFF711F92046BDE81040BD
:101F30000021FFF70BB910BD0038014000440040FC
:101F400000480040004C00400050004030B50446BE
:101F5000008A85B00D464CF6FF710840E9880143C0
:101F60002182A0894EF6F3110840A9882A891143DD
:101F70006A8902431143A181A08A4FF6FF410840BC
:101F8000A9890143A1826846FFF704F919488442F0
:101F900001D1039800E00298A189090400EBC00177
:101FA00001EB0010296801D5490000E08900B0FB71
:101FB000F1F06422B0FBF2F109010B096FF0180592
:101FC0006B4300EB8300A3891D044FF0320306D559
:101FD00003EBC000B0FBF2F000F0070005E003EBFC
:101FE0000010B0FBF2F000F00F000843208105B0B4
:101FF00030BD0000003801404FF41651016000214F
:102000008180C18001810C22428181817047FEE77D
:102010008AB0DFF8B0802C4F03AD06AC6E461423B7
:102020000A226946D8F8300001F0AEFF0028F6D049
:102030009DF80000AA2803D19DF80110C02904D002
:102040009DF82120AA2A07D008E00020315C2954FD
:10205000401C0A28FADB29E0AA2804D00020225CD0
:10206000AA2A02D006E0092107E022185278AA2AFB
:1020700000D10146401C0A28F1DB0020C1F10A0210
:1020800003E04318E35C2B54401C8242F9DC00203F
:1020900004E0431A325C2B44401C9A728842F8DBFD
:1020A0000020315C2154401C0A28FADB03A800F010
:1020B00037FAD7F8980118B10020C7F89801AEE7B1
:1020C0000120FAE7C4000020008023421CB513461B
:1020D0000C4610220449CDE9001201462246002098
:1020E000FEF7CAFB1CBD00000010014010B5124CE9
:1020F000032000212061606110A0A06104F1A8000C
:10210000E0614FF48060A162206261620BA0E16235
:10211000206604F59560606610202167C4E91A0105
:10212000616709A1E01DFEF797F908A12046FEF7B7
:1021300093F92020A07110BD445400205465726DA5
:10214000696E616C000000005254540053454747CB
:102150004552000010B5002300E05B1CCC5C002C55
:10216000FBD1934200D91346FF2B02D200F8013B6A
:1021700007E0FF2200F8012B1A0A00F8013B00F8E3
:10218000012B002204E011F8014B00F8014B521C16
:102190009A42F8D310BD08B5012269461046FFF7F0
:1021A000BFF800281ADD9DF80000052823D008DCC0
:1021B000012814D0022815D0032816D0042806D1EF
:1021C00016E006281AD007281BD080281CD08028AB
:1021D00004D3012269461046FFF7A2F808BDFFF7B5
:1021E0003BFC08BDFFF790FC08BDFFF709FA08BDEE
:1021F000FFF718FC08BDFFF71DF908BDFFF778FBD6
:1022000008BDFFF767FB08BD012269461046FFF7CE
:1022100087F80028F7DD9DF80000FFF71FFB08BDD9
:102220002DE9F041304C0746154620780E464FF018
:102230000108012807D080B3022804D100F05AF821
:10224000207801283ED1202D04D2E16908FA05F05A
:10225000014237D1EAB2182D02D2781E027017E07F
:10226000F11B7F2906D9C8097B1E41F08001187037
:10227000B81E00E0781E7F2D017007D9E909421EC3
:10228000117045F0800100F8021D01E000F8012DF9
:1022900016494D68E168691A05E013E041F08002D3
:1022A00006F8012BC9097F29F8D806F8011B321A54
:1022B00001460120FFF770F808B1E56002E02078E0
:1022C000401C20700A4850F8841F4068814208D0A2
:1022D000A078002805D184F80280FFF75CFF002079
:1022E000A070BDE8F0810000FC5C0020001000E060
:1022F000445400203EB50120164C8DF800006A467B
:10230000511C606904E040F0800301F8013BC00902
:102310007F28F8D801F8010B0F484568E068281AB3
:1023200004E040F0800301F8013BC0097F28F8D8A1
:1023300001F8010B8A1A69460120FFF72DF820B138
:10234000E5602178491E21703EBD6169491C6161CB
:102350003EBD0000FC5C0020001000E070B502F003
:10236000E9F84FF47A720146A1FB0205002303FB52
:10237000025201FB032170BD10B504A0FFF7D8FA8B
:10238000BDE810400EA0FFF7D3BA00004E3D4672E4
:10239000656552544F532044656D6F204170706CD9
:1023A00069636174696F6E2C443D436F7274657824
:1023B0002D4D342C4F3D4672656552544F530000ED
:1023C000492331353D5379735469636B0000000034
:1023D000F8B500240A4D0B4E0DE004EB840705EB25
:1023E00087000169001D009190E80E0055F8270054
:1023F000FFF732FC641C30688442EED3F8BD000065
:10240000085E0020B800002010B50420FFF78EFC05
:102410000C480D490D4A0068B0FBF1F3B0FBF1F137
:102420004FF47A7041431370012050804FF0E02048
:10243000026942F0020202614161016941F0010159
:10244000016110BD7C00002040420F009000002080
:1024500070B5044602F05AF801280CD0094D68887E
:10246000844203D3B4FBF0F001F026F86888B4FB93
:10247000F0F100FB11444FF47A706043BDE8704006
:1024800000F002B89000002070B54FF0E025002168
:102490006C69094AAB6912785043AA699A42FCD028
:1024A00002D2A3EB020302E0A4EB02063344194478
:1024B00013468142F1D370BD9000002005490968A0
:1024C000C90105D54FF060410A68002AFCD00870A8
:1024D00070470000FCED00E01CB5FEF7BBFAFEF70C
:1024E000EFFD094909200860FEF790FF0749012028
:1024F000CDE900010023802205A1084801F0A6FED5
:1025000001F0F6F8FEE7000074000020E000002073
:102510004150505F5374617274000000C909000893
:1025200000220221435C491C1A4492B20729F9DDBA
:10253000017A11420FD08178C27801EB02210A2280
:10254000B1FBF2F304490B800379407903EB0020DF
:10255000B0FBF2F048807047C40000202DE9F04144
:10256000184E0F460446F5683068001D00F00AFE5C
:1025700038B9306890F82C100120884031698143C7
:102580003161601C07D137B13168BDE8F0410E48B8
:10259000091D00F030BE30682C44AC424460316804
:1025A00005D2B06BBDE8F041091D00F00CBE706BA8
:1025B000091D00F008FEB06A844200D2B462BDE892
:1025C000F08100000000002008040020F8B5044657
:1025D00000F01EFE354EB068401CB0603068344FCD
:1025E00010B1706930B32BE03460B068012827D196
:1025F000002505EB850007EB800000F0D6FD6D1C83
:10260000202DF6D32B4800F0D0FD2A48143000F0DE
:10261000CCFD2848283000F0C8FD26483C3000F0AA
:10262000C4FD2448503000F0C0FD224870631430CF
:10263000B06305E03068E16AC06A884200D834605F
:10264000706A401C7062606464B12046FEF772FFDD
:10265000236B206804F13401C01A00902046E26A1E
:10266000FFF788FA2046FEF7A9FFE06A01213269E8
:1026700081401143316100EB800007EB8000211D98
:1026800000F0B9FD00F000FE706900280CD0306841
:10269000E16AC06A884207D207494FF0805008605B
:1026A000BFF34F8FBFF36F8FF8BD00000000002015
:1026B00038010020B803002004ED00E0D0E901213A
:1026C00000680A44101A814200D8401A704700007E
:1026D00010B500F09DFD0E4C2068A0B90D4800F02B
:1026E00064FD0C48143000F060FD0A48E0601430CE
:1026F000206100221021052001F034F9206010B182
:1027000005A100F09BFEBDE8104000F0BDBD00003B
:102710003C0000201C040020546D72510000000099
:1027200030B4026C0B46002A0BD0C1681144C16062
:102730008468A14201D30168C16030BC1846FDF72E
:10274000AFBE30BC70472DE9F041856B174604469B
:102750000026026C82B1C7B1E068FDF7A1FEE16816
:10276000206C091AE1602268914202D2A168081A1D
:10277000E060022F16D017E02068A8B9A06801F029
:10278000BFFF06460020A0600EE06068FDF788FEEF
:10279000216C606808446060A168884204D32068A6
:1027A000606001E005B16D1E6D1CA5633046BDE89B
:1027B000F08110B50446006B00F098FD2046BDE89E
:1027C000104000F093BD000010484FF4A0414207B4
:1027D00006D0C01D0D4920F00700411AC1F5A041E7
:1027E0000B4A00230144C2E900030839103A21F0E2
:1027F000070111604B600B600B1AC0E90013936076
:102800004FF000405360D060704700004404002047
:102810006C000020134E144DA6F52F774FF0805812
:10282000DFF8489011E000F0F3FCF068C468201D68
:1028300000F0A8FCA868401EA8606868401E686098
:1028400000F022FD2046FFF7B4FF68680028EAD1B7
:1028500038680128F9D9C9F80080BFF34F8FBFF35A
:102860006F8FF2E7F40300200000002004ED00E089
:102870002DE9F0410D4604461E46174655212846CF
:10288000DDF81880FDF751FEA84205D04FF499629B
:1028900007A10FA0FDF70EFD24212046FDF758FEED
:1028A000A561C4E9027684F81C80BDE8F0810000CF
:1028B0002E2E5C2E2E5C4672656552544F535C730F
:1028C000747265616D5F6275666665722E63000085
:1028D0004572726F723A25732C25640D0A00000050
:1028E0002DE9F047DDE90984089D994617460E0059
:1028F000824605D14FF4587223A129A0FDF7DAFCD6
:10290000B900A522206BFDF71BFE6FF00301206BC1
:1029100001EB8701084420F00707780705D04FF442
:102920005D7219A11EA0FDF7C5FC00202218315CC4
:1029300082F83410315C11B1401C1028F6D3002607
:1029400084F84360202D00D31F25E562C4E91356A7
:10295000201D00F035FC04F1180000F031FC24616A
:10296000C5F120006462A061666584F858604A463B
:102970005146384600F0F4FB2060B8F1000F01D05A
:10298000C8F80040BDE8F0872E2E5C2E2E5C467203
:10299000656552544F535C7461736B732E63000012
:1029A0004572726F723A25732C25640D0A0000007F
:1029B00030B5114900E011460A688242FBD34B68EA
:1029C0005C18844203D14068184448600846436854
:1029D0001C18944209D1084C103C2468A24209D02A
:1029E00052681A4442600A6812680260814200D04C
:1029F000086030BD0460F9E76C00002070B5002469
:102A000041600B4D0061914206D8D11A8269914212
:102A100006D2011D286907E09A4203D2994201D3E8
:102A2000012403E0011DE86800F0CDFB204670BDE5
:102A30003C00002010B5044600F0EAFBA06B20B17A
:102A4000002400F021FC204610BD0124F9E700001D
:102A5000F3B581B00F4601980026846C2CB940F67E
:102A600045321BA120A0FDF725FCA06BE16B88423D
:102A700005D340F6463216A11BA0FDF71BFCA06B48
:102A8000E16B884216D294F945502046FEF7DCFFF0
:102A9000014600231A465A200097FEF745FE3A46A3
:102AA00001A92046FFF74FFE0646681C04D06D1CA6
:102AB00084F845503046FEBD606A0028FAD004F123
:102AC000240001F083FE0028F4D00126F2E7000084
:102AD0002E2E5C2E2E5C4672656552544F535C71EF
:102AE000756575652E6300004572726F723A2573C5
:102AF0002C25640D0A000000F8B5054614480E4662
:102B0000C068C068C468201D00F03CFBE069012873
:102B100017D1A0692B46411932462046FFF76EFFB8
:102B200078B100200346014600902A46204601F075
:102B300089FF30B907494FF4F47201F11800FDF72D
:102B4000B9FB616A01B02046BDE8F04008470000CB
:102B50003C000020A849000870B586B02F4E53E015
:102B60000198002806DADDE90301029A90470198EE
:102B7000002849DB039C606910B1201D00F002FBB6
:102B800005A800F021F9054601980A283CD2DFE8A3
:102B900000F00505053B273805053B270298A1698C
:102BA000034601442A462046FFF728FF00282BD081
:102BB000616A20468847E069012825D100200090FD
:102BC0000298A169002342181946204601F03AFFF5
:102BD000D0B940F2013212A117A0FDF76BFB13E050
:102BE0000298A06128B94FF446720DA112A0FDF71A
:102BF00061FBA0692B4641191A462046FFF7FEFEED
:102C000002E0204600F072FB002201A9306801F0CA
:102C1000A3F80028A4D106B070BD00003C0000203D
:102C20002E2E5C2E2E5C4672656552544F535C749A
:102C3000696D6572732E63004572726F723A257307
:102C40002C25640D0A000000F8B50D46064600F07C
:102C5000A5FD684600F0B8F80446009810B101F0F0
:102C600005FEF8BD1148ADB101690968D9B100256B
:102C7000311B2A46006800F0FDFB01F0F7FD00283B
:102C8000EFD10B494FF080500860BFF34F8FBFF377
:102C90006F8FF8BDA642EBD801F0E8FD2146304623
:102CA000FFF72AFFF8BD0125E2E700003C00002005
:102CB00004ED00E02DE9F04790468946054643457E
:102CC00001D21C4600E04446002C33D02F68A8688F
:102CD000C61BA64200D32646464505D94FF490624E
:102CE00016A11EA0FDF7E6FAA968B819884205D911
:102CF00040F2814211A119A0FDF7DCFAA869324621
:102D0000C1194846FDF7CCFBB4420DD9444505D95D
:102D100040F2894209A111A0FDF7CCFAA21B09EBF0
:102D20000600A969FDF7BCFBA9683819814200D8E3
:102D3000401A28602046BDE8F08700002E2E5C2E49
:102D40002E5C4672656552544F535C7374726561B4
:102D50006D5F6275666665722E6300004572726F04
:102D6000723A25732C25640D0A0000002DE9F84302
:102D70001E46089D1446894607466DB1D7F8008067
:102D80002A4669463846FFF795FF009A761BA2420D
:102D900002D9C7F800800022334649463846FFF77B
:102DA00089FFBDE8F88300000648416B096829B136
:102DB000416BC968C9684968816270474FF0FF314B
:102DC000FAE700000000002070B5054601F0ACFBFA
:102DD000064E0446B068844203D200F009F8012090
:102DE00000E0002028602046B46070BD3C00002058
:102DF000F8B5184E26E0C068C4680568201D00F0CC
:102E0000C1F9616A20468847E06901281AD1A069A2
:102E10002844A84206D924616060211DF06800F0B2
:102E2000D2F90FE000200346014600902A462046D2
:102E300001F008FE30B9084940F2723201F1180081
:102E4000FDF738FAF06801680029D4D13169C6E984
:102E50000310F8BD3C000020A8490008084840685D
:102E6000401C04D0CA2207A111A0FDF723FA50206C
:102E700080F31188BFF34F8FBFF36F8FFEE7000021
:102E8000500000202E2E5C2E2E5C4672656552543A
:102E90004F535C706F727461626C655C5256445340
:102EA0005C41524D5F434D335C706F72742E630012
:102EB0004572726F723A25732C25640D0A0000006A
:102EC000084CE068016839B1002139B10020FFF7F2
:102ED000BBFEFFF741FEF4E70121F6E7C06800689A
:102EE000F5E700003C0000202DE9F041044600F029
:102EF0008FF994F9455004F1240610E0A06C20B13C
:102F000000212046FFF7A4FD04E0606A48B1304686
:102F100001F05CFC08B100F085FB6D1E6DB2002D68
:102F2000ECDC4FF0FF3684F8456000F0ADF900F0BE
:102F30006FF994F9445004F1100709E0206948B191
:102F4000384601F043FC08B100F06CFB6D1E6DB219
:102F5000002DF3DC84F84460BDE8F04100F094B942
:102F60002DE9F04715008946044605D140F2444258
:102F70001AA122A0FDF79EF96768A068C61BAE42A1
:102F800000D32E46B919814205D940F24E4213A111
:102F90001AA0FDF78FF9A069324638444946FDF77B
:102FA0007FFAB54210D9A168A5EB0608884505D976
:102FB00040F2564209A111A0FDF77CF9424609EB07
:102FC0000601A069FDF76CFAA1687819814200D862
:102FD000401A60602846BDE8F08700002E2E5C2E67
:102FE0002E5C4672656552544F535C737472656112
:102FF0006D5F6275666665722E6300004572726F62
:10300000723A25732C25640D0A0000007FB5044632
:1030100008980D46B3B1217FC9070DD0834211D363
:10302000042202A92046FFF79BFF29462046029A68
:10303000FFF796FF04B070BD0298984200D2034695
:103040000293F2E70020F5E72DE9F041054600265E
:1030500000F0A4FB324F386808B9FFF7B5FBF868F9
:1030600005424FD1002D4DD0083568070BD005F033
:103070000700C0F108000544680704D0952229A183
:1030800033A0FDF717F9002D3CD07868854239D878
:10309000234910310846046801E02146044660686F
:1030A000A84202D220680028F7D13868B846844286
:1030B00028D00E682068086060680836401B102819
:1030C0000ED96719780704D0C22216A120A0FDF7F7
:1030D000F1F86068401B786038466560FFF768FC6F
:1030E0006168D8F804004246401AC8F80400D8F8CD
:1030F0000830984200D29060D8F80C0001430020BC
:10310000C4E9000101F0B2FB700705D04FF48172F1
:1031100004A10FA0FDF7CEF83046BDE8F081000015
:103120005C0000202E2E5C2E2E5C4672656552548B
:103130004F535C706F727461626C655C4D656D4D70
:10314000616E675C686561705F342E63000000002B
:103150004572726F723A25732C25640D0A000000C7
:1031600010B5031F4FF080741C601B1F21F001017C
:103170001960191F024B0B60143940380A6010BDEA
:103180005D2E0008D0E9013201699A60D0E901237F
:103190005A604A68824201D182684A600022026114
:1031A0000868401E08600868704700F108014FF089
:1031B000FF32C0E90112C160016100210160704766
:1031C00000210161704730B50C68621C02D000F12B
:1031D000080202E0026904E01A4653681D68A5422D
:1031E000FAD953684B6099608A6051600861016840
:1031F000491C016030BD42684A6093688B609368E7
:103200005960916008610168491C016070470000C5
:10321000502080F31188BFF34F8FBFF36F8F0949A0
:103220004868401C486001280AD10748006810F02F
:10323000FF0F05D04FF4B37204A10FA0FDF73AB809
:10324000704700005000002004ED00E02E2E5C2EA0
:103250002E5C4672656552544F535C706F72746198
:10326000626C655C525644535C41524D5F434D3332
:103270005C706F72742E63004572726F723A2573C0
:103280002C25640D0A00000010B5084C606828B9B0
:1032900040F26D1206A111A0FDF70CF86068401E07
:1032A000606001D180F3118810BD00005000002043
:1032B0002E2E5C2E2E5C4672656552544F535C7008
:1032C0006F727461626C655C525644535C41524D3E
:1032D0005F434D335C706F72742E63004572726F82
:1032E000723A25732C25640D0A00000070B5002881
:1032F0002AD0164DA0F108046068E968084205D19B
:103300004FF48B7212A11DA0FCF7D4FF206828B1E6
:1033100040F217120EA119A0FCF7CCFF6068E96813
:10332000084211D02268002A0ED18843606000F064
:1033300035FA60686968084468602046FFF738FB22
:10334000BDE8704001F092BA70BD00005C00002042
:103350002E2E5C2E2E5C4672656552544F535C7067
:103360006F727461626C655C4D656D4D616E675C1A
:10337000686561705F342E63000000004572726FF3
:10338000723A25732C25640D0A0000004FF0E020EE
:1033900000210161816105494FF47A720968B1FB2E
:1033A000F2F1491E41610721016170477C00002054
:1033B00010B5FCF75BFF104C10280CD300F1E02097
:1033C00090F8F0032178884205D240F2A5220BA1A3
:1033D00015A0FCF76FFF18480068A16800F4E060D2
:1033E000884207D9BDE8104040F2B52203A10EA0E3
:1033F000FCF760BF10BD0000500000202E2E5C2E98
:103400002E5C4672656552544F535C706F727461E6
:10341000626C655C525644535C41524D5F434D3380
:103420005C706F72742E63004572726F723A25730E
:103430002C25640D0A0000000CED00E010B50C46D0
:103440000B4B002153F831201AB1491C0829F9D33C
:1034500010BD43F8314003EBC1014860FEF7F4FAB8
:1034600022460146BDE810407120FEF701B9000078
:10347000F800002070B515460E460446FFF7C8FE5A
:1034800094F944100020491C01D184F8440094F9B7
:103490004510491C01D184F84500FFF7F5FEA06BEB
:1034A00028B92A46314604F1240000F0EDF8204600
:1034B000BDE87040FFF718BD10B5040016D0104AE3
:1034C000126B2AB14FF4A4620EA114A0FCF7F2FE15
:1034D00000F064F921462320FEF7ACF800212046D5
:1034E000FFF73CF801F0C2F9002807D10F494FF06F
:1034F00080500860BFF34F8FBFF36F8F10BD000087
:10350000000000202E2E5C2E2E5C46726565525403
:103510004F535C7461736B732E6300004572726F5E
:10352000723A25732C25640D0A00000004ED00E0BA
:1035300070B50446FFF76CFE284D04B92C68201DB9
:10354000FFF720FE58B9E06A254A00EB800152F8E7
:10355000211021B901218140286988432861A06A8E
:1035600018B104F11800FFF70DFE686A401C68628C
:103570002868844207D1211D1A48FFF73CFE68687D
:10358000401C686007E0A868401EA8602046FFF75E
:1035900010F9FFF709FC2046FEF756FA01462220F3
:1035A000FEF748F82046FEF71DFBFFF76DFE686941
:1035B000002812D0286884420FD1286B28B140F22D
:1035C000B64209A10EA0FCF775FE11494FF08050DC
:1035D0000860BFF34F8FBFF36F8F70BD00000020F6
:1035E00038010020F40300202E2E5C2E2E5C467243
:1035F000656552544F535C7461736B732E630000A6
:103600004572726F723A25732C25640D0A00000012
:1036100004ED00E002490A6A0260C968416070472F
:103620000000002001490120C8617047000000200F
:1036300070B50D46040005D140F69F3207A10DA0DC
:10364000FCF738FE0F48016820461831FFF7BBFD34
:103650002846BDE870400121FEF780BF2E2E5C2E6B
:103660002E5C4672656552544F535C7461736B7384
:103670002E6300004572726F723A25732C25640D1B
:103680000A0000000000002070B514460E46050038
:1036900005D140F6CA320BA110A0FCF70BFE13486F
:1036A000016828461831FFF7A6FD0CB14FF0FF3630
:1036B0002420FEF7C1F821463046BDE87040FEF7F1
:1036C0004DBF00002E2E5C2E2E5C46726565525456
:1036D0004F535C7461736B732E6300004572726F9D
:1036E000723A25732C25640D0A00000000000020AA
:1036F0001CB51C480024CDE90040234682221AA1B3
:103700001B4800F0A3FD012803D101F061F9012855
:103710000AD0401C25D102B040F60402BDE810409A
:1037200014A11AA0FCF7C6BD502080F31188BFF386
:103730004F8FBFF36F8F0B484FF0FF312C388162F2
:1037400001214161C4600168C26A914202D1FDF762
:10375000DFFE02E00068FDF70FFFBDE81C4000F04F
:1037600071B81CBD2C00002049444C4500000000ED
:10377000152800082E2E5C2E2E5C4672656552546C
:103780004F535C7461736B732E6300004572726FEC
:10379000723A25732C25640D0A0000000248016B63
:1037A000491C0163704700000000002070B5194DEE
:1037B000286B10B10120E86170BD0020E861286924
:1037C000154EB0FA80F0C0F11F0000EB800456F8EF
:1037D000240028B940F6883210A116A0FCF76AFD33
:1037E00006EB840000F1080241684968416091429B
:1037F00001D149684160C86828602868E96A884240
:1038000003D1BDE87040FDF783BE2868BDE8704075
:10381000FDF7B2BE00000020380100202E2E5C2EE5
:103820002E5C4672656552544F535C7461736B73C2
:103830002E6300004572726F723A25732C25640D59
:103840000A0000007CB52A4D28780190FF202870DE
:1038500028788DF800009DF800009DF8001000F019
:10386000F000884205D04FF48A7222A12CA0FCF708
:1038700021FD9DF800002E4C00F050002070072024
:10388000A06006E0401EA0609DF8000040008DF89A
:1038900000009DF800000006A068F3D403280ED0B5
:1038A00040F2271213A11EA0FCF704FDA068032814
:1038B00005D04FF498720FA119A0FCF7FBFC207AF9
:1038C000000200F4E060A0600198287019480168C7
:1038D00041F470010160016841F070410160FFF73F
:1038E00055FD00206060FCF78BFC00207CBD0000D3
:1038F00000E400E02E2E5C2E2E5C4672656552546C
:103900004F535C706F727461626C655C52564453C5
:103910005C41524D5F434D335C706F72742E630097
:103920004572726F723A25732C25640D0A000000EF
:103930005000002020ED00E010B5502080F31188E9
:10394000BFF34F8FBFF36F8F00F0FCFD18B1044938
:103950004FF080500860002080F3118810BD0000F7
:1039600004ED00E02DE9F04117460D46060005D1B3
:103970004FF4BB7213A119A0FCF79CFCEDB106FB40
:1039800005F05430FFF760FB040013D004F154003D
:10399000ADB12060C4E90F652046012100F026F892
:1039A00084F850700021A1643B462A4631467320BA
:1039B000FDF786FE2046BDE8F0810020E1E72460A7
:1039C000E8E700002E2E5C2E2E5C46726565525490
:1039D0004F535C71756575652E6300004572726F9B
:1039E000723A25732C25640D0A00000070B50D464F
:1039F000040005D140F203121CA122A0FCF75AFCDE
:103A0000FFF706FCD4E90F20216802FB0011A1603A
:103A10000021A163216861600A46D4E90F01401EBC
:103A200000FB0121E16021464FF0FF3001F8440F17
:103A3000487004F110004DB1FFF7B7FB04F124000A
:103A4000FFF7B3FBFFF720FC012070BD21690029BF
:103A5000F8D000F0BBFE0028F4D00E494FF08050A3
:103A60000860BFF34F8FBFF36F8FEBE72E2E5C2EF6
:103A70002E5C4672656552544F535C717565756571
:103A80002E6300004572726F723A25732C25640D07
:103A90000A00000004ED00E02DE9FF4F83B01D4651
:103AA0008B4604004FF0000705D140F2F1225EA1E1
:103AB00063A0FCF7FFFBBBF1000F07D1206C28B11E
:103AC00040F2F22258A15EA0FCF7F4FB022D08D1CF
:103AD000E06B012805D040F2F32253A158A0FCF777
:103AE000E9FB00F013FD38B9059828B140F2F62241
:103AF0004DA153A0FCF7DEFB4FF0000A4FF08058B9
:103B0000DFF84C91FFF784FBA06BE16B884205D393
:103B1000022D03D0059870B377B335E02046FDF74A
:103B200093FF014600231A465A200095FDF7FCFD3D
:103B3000A66B2A4659462046FEF705FEA16C39B110
:103B4000022D00D18EB929462046FEF781FF05E0FF
:103B5000616A19B104F1240000F038FE28B1C9F8F7
:103B60000080BFF34F8FBFF36F8FFFF78DFB0120F6
:103B700007B0BDE8F08F00E002E0FFF785FB21E031
:103B800001A8FFF747FD0127FFF77EFBFFF706FEC1
:103B9000FFF73EFB94F94400401C01D184F844A097
:103BA00094F94500401C01D184F845A0FFF76CFB57
:103BB00005A901A800F000FB80B12046FFF794F9A9
:103BC00000F054FE2046FDF73FFF014600955A469F
:103BD0005A20059BFDF7A8FD0020C9E7FFF718FB59
:103BE000A06BE16B884201D1012600E00026FFF7BF
:103BF0004BFB9EB104F110000599FFF719FD20461B
:103C0000FFF772F900F032FE00287FF47BAFC9F8AD
:103C10000080BFF34F8FBFF36F8F73E72046FFF72E
:103C200063F900F023FE6DE72E2E5C2E2E5C4672AB
:103C3000656552544F535C71756575652E63000060
:103C40004572726F723A25732C25640D0A000000CC
:103C500004ED00E02DE9F04798461546894604003A
:103C600005D140F2C33232A137A0FCF723FBB9F1F2
:103C7000000F07D1206C28B14FF471722CA132A033
:103C8000FCF718FBB8F1020F08D1E06B012805D052
:103C900040F2C53226A12CA0FCF70CFBFFF788FBF5
:103CA0005020EFF3118780F31188BFF34F8FBFF3DC
:103CB0006F8FA06BE16B88420FD3B8F1020F0CD06D
:103CC0002046FDF7C1FE01462A466020FDF7D0FCE4
:103CD000002087F31188BDE8F08794F945602046FD
:103CE000FDF7B2FE01462A466020FDF7C1FC4246C0
:103CF00049462046FEF727FD701C04D0761C84F848
:103D000045600120E5E7A06C012620B14146204630
:103D1000FEF79EFE06E0606A0028F2D004F124005F
:103D200000F054FD0028ECD0002DEAD02E60E8E72A
:103D30002E2E5C2E2E5C4672656552544F535C717C
:103D4000756575652E6300004572726F723A257352
:103D50002C25640D0A0000002DE9F74F84B08B4636
:103D600004004FF0000605D14FF4A06254A15AA000
:103D7000FCF7A0FABBF1000F07D1206C28B140F28C
:103D800004524FA154A0FCF795FA00F0BFFB38B9DC
:103D9000069828B140F2095249A14FA0FCF78AFACF
:103DA0004FF0010800274FF08059DFF83CA1FFF7E2
:103DB0002FFAA56B3DB359462046FEF7B1FC002013
:103DC000FDF742FE06462046FDF73EFE0146CDF8D1
:103DD000008032465C20069BFDF7A6FC6D1EA563A5
:103DE000206950B104F1100000F0F0FC28B1CAF8CD
:103DF0000090BFF34F8FBFF36F8FFFF745FA01209D
:103E000007B0BDE8F08F069808B11EB106E0FFF7D5
:103E10003BFA27E001A8FFF7FDFB0126FFF734FA84
:103E2000FFF7BCFCFFF7F4F994F94400401C01D102
:103E300084F8447094F94500401C01D184F8457021
:103E4000FFF722FA06A901A800F0B6F900282046DB
:103E500019D0FFF749F800F009FD2046FEF7EAFD0A
:103E60000028A4D00020FDF7EFFD05462046FDF711
:103E7000EBFD0146CDF800802A465C20069BFDF74D
:103E800053FC0020BCE7FEF7D5FD90B104F12400FF
:103E90000699FFF7CDFB2046FFF726F800F0E6FC79
:103EA000002884D1CAF80090BFF34F8FBFF36F8F03
:103EB0007DE72046FFF718F800F0D8FC77E7000010
:103EC0002E2E5C2E2E5C4672656552544F535C71EB
:103ED000756575652E6300004572726F723A2573C1
:103EE0002C25640D0A00000004ED00E02DE9F843E4
:103EF00090460D460446012A02D000262CB109E066
:103F00000126042C06D8E82200E0EE2212A11AA015
:103F1000FCF7D0F9A54204D9F0220FA116A0FCF7B6
:103F2000C9F905B90125671C04F12500FFF78CF8D4
:103F3000040009D02B463A4604F12401204600969D
:103F4000FEF796FC224600E0002241468920FDF75C
:103F50008FFB2046BDE8F8832E2E5C2E2E5C467229
:103F6000656552544F535C73747265616D5F627521
:103F7000666665722E6300004572726F723A257331
:103F80002C25640D0A0000002DE9F84F9946934650
:103F90005FEA010A04464FF0000705D140F2D12242
:103FA00032A13AA0FCF786F92CB940F2D2222FA117
:103FB00036A0FCF77FF9207FC00701D0042500E080
:103FC00000254FF00008B9F1000F44D0FFF720F9A9
:103FD0002046FEF773FB0646A8420DD8002000F0ED
:103FE0002BFB206928B140F2F52220A127A0FCF785
:103FF00061F900F085FA2061FFF746F9AE420BD86F
:1040000000224B461146104600F02EFBC4F81080EB
:104010002046FEF753FB0646AE421ED933465A46AB
:10402000514620460095FEF7A1FE07001AD0024631
:1040300021468E20FDF71CFBFFF7B0FB606938B10D
:10404000606900231A46194600F02CF9C4F8148060
:1040500000F00CFC06E02046DBE7002221468E2023
:10406000FDF706FB3846BDE8F88F00002E2E5C2ECB
:104070002E5C4672656552544F535C737472656171
:104080006D5F6275666665722E6300004572726FC1
:10409000723A25732C25640D0A0000002DE9F843BF
:1040A00098460F0004461646154605D140F26B228D
:1040B0001FA127A0FCF7FEF82CB94FF41B721CA11E
:1040C00023A0FCF7F7F8207FC00700D02D1D204665
:1040D00000F046F803463246394620460095FEF782
:1040E00095FF06001CD02046FEF7E8FAE1688842FA
:1040F00016D35020EFF3118580F31188BFF34F8F53
:10410000BFF36F8F206948B1CDF80080206900238C
:104110001A46194600F054F90021216185F31188EF
:10412000324621468D20FDF7A3FA3046BDE8F883DC
:104130002E2E5C2E2E5C4672656552544F535C7376
:10414000747265616D5F6275666665722E630000EC
:104150004572726F723A25732C25640D0A000000B7
:1041600010B5040005D140F2DB1207A10EA0FCF748
:10417000A1F8A168206862680844801A401E814244
:1041800000D8401A10BD00002E2E5C2E2E5C467208
:10419000656552544F535C73747265616D5F6275EF
:1041A000666665722E6300004572726F723A2573FF
:1041B0002C25640D0A0000002DE9F0410C46050095
:1041C00005D140F6654216A11BA0FCF773F82CB987
:1041D00040F6664212A118A0FCF76CF8FFF718F839
:1041E000194EF1686B682268C81A571C07D02F68EF
:1041F000366AB74209D08B4207D8012400E0002478
:10420000FFF742F82046BDE8F081824205D9101A36
:1042100020602846FFF7FEF9F1E700202060ECE778
:104220002E2E5C2E2E5C4672656552544F535C7484
:1042300061736B732E6300004572726F723A25735F
:104240002C25640D0A000000000000202DE9FF5F0E
:104250008346DDE90E87994616468A469000FEF7AA
:10426000F3FE05001AD05C20FEF7EEFE040012D02B
:1042700025630021CDE90241CDE900874B46324656
:1042800051465846FEF72CFB2046FEF79FF90120C9
:1042900004B0BDE8F09F2846FFF728F84FF0FF3044
:1042A000F6E700002DE9F8431E4691460D4604004E
:1042B0004FF0010805D141F2192234A139A0FBF7D2
:1042C000F9FFFEF7A5FF0EB1606D306094F85870ED
:1042D000022084F85800B9F1050F12D2DFE809F086
:1042E0001A03060C0A00606D284301E0606D401C53
:1042F00060650FE0022F01D065650BE04FF000080C
:1043000008E0606D401C05D041F24A221FA125A0A3
:10431000FBF7D0FF2046FDF797FB01464B462A46A8
:104320003E200096FDF700FA012F29D1201DFEF74F
:1043300029FF2046FDF742F91E4DE06A01212A6956
:104340008140114329611C4900EB800001EB800092
:10435000211DFEF750FFA06A28B141F259220BA19E
:1043600010A0FBF7A7FFE06A2968C96A884207D94D
:1043700012494FF080500860BFF34F8FBFF36F8F2B
:10438000FEF782FF4046BDE8F88300002E2E5C2E2B
:104390002E5C4672656552544F535C7461736B7347
:1043A0002E6300004572726F723A25732C25640DDE
:1043B0000A000000000000203801002004ED00E0A9
:1043C0002DE9FC5FDDF830801E4693460D46040063
:1043D0004FF0010A05D141F28C223CA141A0FBF72C
:1043E00069FFFEF7E5FF5021EFF3118081F311889B
:1043F000BFF34F8FBFF36F8F81460EB1606D30609A
:1044000094F85870022084F85800BBF1050F12D2BE
:10441000DFE80BF01A03060C0A00606D284301E088
:10442000606D401C60650FE0022F01D065650BE0F8
:104430004FF0000A08E0606D401C05D041F2CF2229
:1044400022A128A0FBF736FF2046FDF7FDFACDE9B3
:10445000006801465B462A463F20FDF7A3F9012F7D
:104460001BD1A06A28B141F2DA2218A11DA0FBF7E6
:1044700021FF204D286B0126A0B104F118011E4830
:10448000FEF7B9FEE06A2968C96A884205D9B8F121
:10449000000F01D0C8F80060EE6189F31188504622
:1044A000BDE8FC9F201DFEF76DFE2046FDF786F857
:1044B000E06A2A6906FA00F11143296100EB8001E4
:1044C0000E4800EB8100211DDAE700002E2E5C2E45
:1044D0002E5C4672656552544F535C7461736B7306
:1044E0002E6300004572726F723A25732C25640D9D
:1044F0000A00000000000020E00300203801002036
:10450000014800687047000000000020054841692C
:1045100019B1006B18B100207047012070470220CC
:1045200070470000000000200148C068704700008C
:104530000000002010B5FEF73BFF0148C06810BD29
:10454000000000202DE9F0412F4F0026386B40B1CC
:10455000B869401CB861F86900B101263046BDE871
:10456000F081FD686D1CFD6011D1786B006828B189
:1045700040F6622225A12BA0FBF79CFE786BB96B5D
:104580007963B863386A401C3862FEF70DFCB86A7C
:10459000DFF8A080854209D3786B006880B1786B22
:1045A000C068C468606885420DD2B8623868C06A65
:1045B00000EB800158F821000128CCD90126CAE778
:1045C0004FF0FF30F1E7201DFEF7DCFDA06A18B1C7
:1045D00004F11800FEF7D6FD2046FCF7EFFFE06A75
:1045E00001213A6981401143396100EB800108EBF8
:1045F0008100211DFEF7FFFDE06A3968C96A884223
:10460000CAD30126C8E70000000000202E2E5C2E31
:104610002E5C4672656552544F535C7461736B73C4
:104620002E6300004572726F723A25732C25640D5B
:104630000A0000003801002010B558B10446FEF70A
:10464000E7FD94F85800022807D00024FEF71CFE6E
:10465000204610BD03480468F1E7002084F85800A4
:104660000124F3E7000000202DE9F8431D4616461B
:1046700088460746FEF7CCFD1F4C206890F858008E
:10468000022814D02068416DB9434165216801209A
:1046900081F858005DB101212846FDF75FFF1749F9
:1046A0004FF080500860BFF34F8FBFF36F8FFEF75E
:1046B000EBFDFEF7ADFD33464246394640200095FE
:1046C000FDF732F816B12068406D3060206890F830
:1046D0005800022801D0002505E02068416D21EA3C
:1046E0000801416501252168002081F85800FEF786
:1046F000CBFD2846BDE8F8830000002004ED00E073
:104700002DE9F04104004FF0000643D0234D296805
:104710008C4205D040F67A7221A127A0FBF7CAFD92
:10472000206D28B940F67B721DA123A0FBF7C2FDC6
:10473000206D401E2065E26AE16C8A422AD048BBA7
:10474000201DFEF71FFD204F012650B9E06A00EB47
:10475000800157F8211021B9296906FA00F0814338
:10476000296121464A20FCF765FFE06CE062C0F158
:104770002000A0612046FCF721FFE06A29698640FD
:104780000E432E6100EB800007EB8000211DFEF739
:1047900032FD01263046BDE8F08100000000002017
:1047A0002E2E5C2E2E5C4672656552544F535C74FF
:1047B00061736B732E6300004572726F723A2573DA
:1047C0002C25640D0A000000380100202DE9F0417D
:1047D000C068C4682CB940F6FA3217A11CA0FBF7D8
:1047E00069FD04F118000746FEF7CCFC1C4D286B50
:1047F000012660B139461B48FEF7FDFCE06A2968D6
:10480000C96A884216D90120EE61BDE8F081201DF9
:10481000FEF7B8FC2046FCF7D1FEE06A2A6906FAEA
:1048200000F111432961104900EB800001EB800089
:10483000211DE1E70020E8E72E2E5C2E2E5C46725B
:10484000656552544F535C7461736B732E63000043
:104850004572726F723A25732C25640D0A000000B0
:1048600000000020E0030020380100202DE9F0477F
:104870002D4D00242746286B28B940F668022BA14D
:1048800030A0FBF717FDFEF7C3FC286B401E286322
:10489000286BE8BBA8682F490126C8B3A1F52A797F
:1048A0008846D8F8001001B3D8F80C00C46804F1A9
:1048B0001800FEF767FC201DFEF764FC2046FCF79D
:1048C0007DFEE06A2A6906FA00F11143296100EBD6
:1048D000800109EB8100211DFEF78DFCE06A29684B
:1048E000C96A8842DDD3EE61DBE70CB1FEF75CFA02
:1048F000AC693CB1FFF726FE00B1EE61641EF9D150
:104900000020A861E86918B101273807124900E0C2
:1049100004E00860BFF34F8FBFF36F8FFEF7B4FC66
:104920003846BDE8F0870000000000202E2E5C2EE7
:104930002E5C4672656552544F535C7461736B73A1
:104940002E6300004572726F723A25732C25640D38
:104950000A000000E003002004ED00E02DE9F0472C
:104960000746994616460D462C20DDF820A0FEF796
:104970006BFB040014D0B8464F46D1462DB94FF416
:10498000B67209A10EA0FBF795FCFDF7A1FE04F19C
:104990001801C4F8008081E8E002201DFEF710FC39
:1049A0002046BDE8F08700002E2E5C2E2E5C46725D
:1049B000656552544F535C74696D6572732E630064
:1049C0004572726F723A25732C25640D0A0000003F
:1049D0001CB50024FDF77CFE0C48006868B10B494B
:1049E0001F20091DCDE9000100234FF4827208A1A8
:1049F0000948FFF72BFC040005D14FF4897207A189
:104A00000CA0FBF757FC20461CBD00003C0000201A
:104A1000546D722053766300C12E00082E2E5C2E3A
:104A20002E5C4672656552544F535C74696D6572B5
:104A3000732E63004572726F723A25732C25640DD4
:104A40000A0000002DE9FF47DDF830A099469046A6
:104A50000D4606004FF0000705D14FF4C37212A1B6
:104A600017A0FBF727FC1A4C206880B1CDE900584D
:104A70000296062D11DAFFF749FD02284FF00003D8
:104A800009D0002269462068FFF706F8074604B0FF
:104A90003846BDE8F0875246F4E700234A466946A7
:104AA000FFF7D8F8F2E700002E2E5C2E2E5C46723F
:104AB000656552544F535C74696D6572732E630063
:104AC0004572726F723A25732C25640D0A0000003E
:104AD0003C00002000000000000000000000303119
:104AE0003233343536373839414243444546000085
:104AF0005D230008D123000853595354454D5649AE
:104B000045573A20436F756C64206E6F7420726550
:104B1000636F7264207461736B20696E666F726D6F
:104B20006174696F6E2E204D6178696D756D206EB0
:104B3000756D626572206F66207461736B7320728D
:104B40006561636865642E0020546865726520772E
:104B50006173206E6F7420656E6F7567682068657D
:104B60006170206D656D6F7279207370616365206F
:104B7000617661696C61626C6520746F2063726537
:104B800061746520746865206D6573736167652065
:104B90006275666665722E2000000000BC4B00083E
:104BA00000000020F80000006C010008B44C000870
:104BB000F8000020206800008801000800000000C4
:104BC00000000000000000000000000000000000E5
:104BD00000000000000000000000000000000000D5
:104BE00000000000000000000000000000000000C5
:104BF00000000000000000000000000000000000B5
:104C000000000000000000000000000000000000A4
:104C1000AAAAAAAA000000000000000000000000EC
:104C20000000000000000000000000000000000084
:104C3000000000000000000000A24A040000000084
:104C4000000000000102030406070809000000003C
:104C5000020406080000000001020304010203042C
:104C60000607080900000000000000000000000026
:104C70000000000000000000000000000000000034
:104C80000000000000000000000000000000000024
:104C90000000000000000000000000000000000014
:104CA0000000000000000000000000000000000004
:044CB0000000000000
:0400000508000131BD
:00000001FF
