:020000040800F2
:10000000186900207502000893110008DD0D000832
:1000100091110008DD0A00088F2000080000000090
:10002000000000000000000000000000DD010008EA
:100030000B0D00080000000021020008C51D00088B
:100040008F0200088F0200088F0200088F0200084C
:100050008F0200088F0200088F0200088F0200083C
:100060008F0200088F0200088F0200088F0200082C
:100070008F020008E10A00088F0200088F020008C2
:100080008F0200088F0200088F0200088F0200080C
:100090008F0200088F0200088F0200088F020008FC
:1000A0008F0200088F0200088F0200088F020008EC
:1000B000291E00088F0200088F0200088F02000826
:1000C0008F0200088F0200088F0200088F020008CC
:1000D0008F0200088F0200088F0200088F020008BC
:1000E0008F0200088F0200088F0200088F020008AC
:1000F0008F0200088F0200088F0200088F0200089C
:100100008F0200088F0200088F0200088F0200088B
:100110008F0200088F0200088F0200088F0200087B
:100120008F0200088F0200088F0200088F0200086B
:1001300000F002F800F042F80AA090E8000C8244B7
:100140008344AAF10107DA4501D100F037F8AFF294
:10015000090EBAE80F0013F0010F18BFFB1A43F0A5
:100160000103184780410000A0410000103A24BF5D
:1001700078C878C1FAD8520724BF30C830C144BF0C
:1001800004680C607047000000230024002500264E
:10019000103A28BF78C1FBD8520728BF30C148BFEA
:1001A0000B607047642900F0EF80732900F07282C1
:1001B000002070471FB51FBD10B510BD00F0DCFA60
:1001C0001146FFF7F7FF02F069F900F0FAFA03B4FD
:1001D000FFF7F2FF03BC00F0FDFA0000224B1968A4
:1001E0000868B0E8F00F80F30988BFF36F8F4FF015
:1001F000000080F311884EF00D0E704700000000E3
:1002000006480068006880F3088862B661B6BFF3EC
:100210004F8FBFF36F8F00DF00BF00BF08ED00E01E
:10022000EFF30980BFF36F8F0F4B1A6820E9F00FCF
:10023000106008B54FF0500080F31188BFF34F8F66
:10024000BFF36F8F03F07EF94FF0000080F3118849
:10025000BDE8084019680868B0E8F00F80F3098825
:10026000BFF36F8F704700BF00000020EFF30580E1
:10027000704700000948804709480047FEE7FEE74D
:10028000FEE7FEE7FEE7FEE7FEE7FEE7FEE7FEE746
:1002900004480549054A064B70470000D91D00086F
:1002A000310100081863002018690020186500203B
:1002B000186500200FB4044910B503AA029800F095
:1002C000EDF910BC5DF814FBBC0000202DE9F041F5
:1002D0000E460446002020622046E168884730B37D
:1002E000252805D0D4E901219047206A401CF2E777
:1002F000E168204600278847050018D0A5F1410095
:10030000192802D820354FF4006732462946204686
:100310002760FFF747FF40B1012804D0F61D26F003
:1003200007060836D8E7361DD6E72846DAE7206AFA
:10033000BDE8F08170B50C460546012A05D0287845
:10034000800600D5EA69002302E0012305E05B1C7A
:10035000934202D2E05C0028F9D1A869E618C01ADD
:10036000A861286A184428622846AFF3008004E098
:10037000D5E9012114F8010B9047B442F8D328467F
:10038000AFF3008070BD00002DE9F0410646002467
:1003900010687529314616A510D0AFF300800028EB
:1003A00002DA404213A507E031688A0701D512A599
:1003B00002E0490704D511A5012401E0AFF3008054
:1003C00000210A2206F1240709E0B0FBF2FCB0FB91
:1003D000F2F302FB1C00303078541846491C002808
:1003E000F3D123462A463046BDE8F04100F0CFB8AD
:1003F000000000002D0000002B0000002000000085
:1004000040EA010310B59B070FD1042A0DD310C891
:1004100008C9121F9C42F8D020BA19BA884201D9E3
:10042000012010BD4FF0FF3010BD1AB1D30703D02B
:10043000521C07E0002010BD10F8013B11F8014BE1
:100440001B1B07D110F8013B11F8014B1B1B01D1FD
:10045000921EF1D1184610BD40EA0103024630B5A4
:100460009B0710D14FF0013400E008C208C91D1BE2
:100470009D4315EAC41FF8D013F0FF0102F8011BD9
:100480000DD01B0AF8E711F8013B002B02F8013BE5
:1004900005D011F8013B002B02F8013BF3D130BD30
:1004A000032A40F2308010F0030C00F0158011F8A0
:1004B000013BBCF1020F624498BF11F801CB00F878
:1004C000013B38BF11F8013BA2F1040298BF00F8CC
:1004D00001CB38BF00F8013B11F0030300F0F080BE
:1004E000083AC0F0088051F8043B083A51F804CBB0
:1004F000A0E80810F5E7121D5CBF51F8043B40F876
:10050000043BAFF30080D20724BF11F8013B11F880
:1005100001CB48BF11F8012B24BF00F8013B00F8C4
:1005200001CB48BF00F8012B704702F0FF0343EAFC
:10053000032242EA024200F0F7B84FF0000200B591
:10054000134694469646203922BFA0E80C50A0E8F6
:100550000C50B1F12001BFF4F7AF090728BFA0E8A4
:100560000C5048BF0CC05DF804EB890028BF40F870
:10057000042B08BF704748BF20F8022B11F0804FB2
:1005800018BF00F8012B70477047704770472DE97E
:10059000F0470D4699469246044600F1240801684A
:1005A000880604D5E06921F01001216000E00120F7
:1005B000A84201DD471B00E00027A1697A1902EB80
:1005C0000900081AA0612078C00602D42046AFF3C3
:1005D0000080002608E0D4E901211AF806009047BF
:1005E000206A401C761C20624E45F4DB2078C00651
:1005F0000AD52046AFF3008006E0D4E9012130207F
:100600009047206A401C2062381EA7F10107F4DCE5
:1006100007E0D4E9012118F805009047206A401C42
:100620002062281EA5F10105F3DC2046AFF300800F
:100630002078000602D50220BDE8F0870120FBE704
:1006400001694A1C02610878704700B58FB0CDE996
:1006500001310021059105497944CDE90310114686
:100660006846FFF733FE0FB000BD0000E5FFFFFF57
:1006700010B5436913B1AFF3008001E0FFF75AFEF4
:10068000012010BD127800F124010A7000224A7086
:100690000122EDE711684FF0FF32E9E7074B70B533
:1006A0000D467B44FFF7D1FF0446284600F060F872
:1006B00010B14FF0FF3070BD204670BDDB1D000053
:1006C00010B5203AC0F00B80B1E81850203AA0E8ED
:1006D0001850B1E81850A0E81850BFF4F5AF5FEA21
:1006E000027C24BFB1E81850A0E8185044BF18C9D4
:1006F00018C0BDE810405FEA827C24BF51F8043B7B
:1007000040F8043B08BF7047D20728BF31F8023BCE
:1007100048BF11F8012B28BF20F8023B48BF00F862
:10072000012B70474FF000020429C0F0128010F036
:10073000030C3FF404AFCCF1040CBCF1020F18BF62
:1007400000F8012BA8BF20F8022BA1EB0C01FFF74A
:10075000F6BE5FEAC17C24BF00F8012B00F8012B34
:1007600048BF00F8012B704700487047B462002072
:10077000007B00F0800070477546FFF7F5FFAE463E
:1007800005006946534620F00700854618B020B59D
:10079000FFF77EFDBDE820404FF000064FF0000758
:1007A0004FF000084FF0000B21F00701AC46ACE819
:1007B000C009ACE8C009ACE8C009ACE8C0098D4686
:1007C000704710B50446AFF300802046BDE81040E6
:1007D000FFF7FDBC01491820ABBEFEE72600020072
:1007E0007047000038B504461B480D46221A011513
:1007F000C314844223D009DC184822180ED08A4240
:100800000FD09A4211D1012110200CE08A4219D058
:100810009A421AD0B2F5406F07D119E001210420A5
:1008200001E00121082000F011FDADF80050042086
:100830008DF803006946204600F068FA38BD0121B2
:100840002020F0E701214020EDE701218020EAE7A8
:1008500001210802E7E700000014014000F8FEBF94
:100860002DE9F0471E46DDE90859174688468246BD
:10087000022400F0D9FA49462846FFF7B3FF0021C9
:10088000504600F044F8E0BB0121504600F03FF82C
:10089000A0F50541833938D10221504600F037F8E0
:1008A000B0F5004F31D10321504600F030F8A0F5EB
:1008B000FE41FF3929D148F4004542460121504606
:1008C00000F051F83A460221504600F04CF832460A
:1008D0000321504600F047F80121504600F017F878
:1008E000A8420FD10221504600F011F8B84209D1B8
:1008F0000321504600F00BF8B04203D10020BDE8C0
:10090000F08702E0641EE4B2D7D20120F7E770B5A9
:100910000D46044600F02CFB902040EA4400C0B293
:1009200000F0F2FA00F066FB284600F0EDFA00F065
:1009300061FB00F01DFB912040EA4400C0B200F0D2
:10094000E3FA00F057FB012000F0A8FA05020120AD
:1009500000F0A4FA40EA050400F02AFB032001F0AD
:1009600075FD204670BD70B514460E46054600F074
:10097000FFFA902040EA4500C0B200F0C5FA00F04E
:1009800039FB304600F0C0FA00F034FB200A00F0DA
:10099000BBFA00F02FFBE0B200F0B6FA00F02AFB41
:1009A00000F006FBBDE87040032001F04FBD0000E1
:1009B0007CB502F0F9FA2748012300901A464FF45B
:1009C000FA7125A003F098FB254C02250023A061B5
:1009D000201DCDE90050322222A1254803F09CF9C8
:1009E00004F10C000326CDE900600023322221A18E
:1009F000234803F091F904F110010420CDE900012E
:100A0000002332221FA1224803F086F904F10800D6
:100A1000CDE90060002332221EA1214803F07CF9B9
:100A200004F11400CDE900500023EA011DA1224881
:100A300003F072F9206802F047FC02F0F1FA03F0CB
:100A4000A5F902460020034600900121A06903F0A9
:100A5000C7FB7CBDBD0A000874696D6572000000AB
:100A6000C80000204C6564305F5461736B00000067
:100A7000FD1000084C6564315F5461736B00000029
:100A80003D1100084C6564325F5461736B000000D7
:100A9000691100085377697463685F5461736B0070
:100AA000811D000874696D6572636F6E74726F6C7E
:100AB0005F7461736B000000F52E0008704710B57D
:100AC0004FF4407000F066FB01F080FC00F0E8FAA3
:100AD00000F01EFCBDE8104001F0CCB9FEE70000BC
:100AE00070B54FF40074204600F0E2F800284ED0B4
:100AF000204600F053F8204600F05CF8254B03F147
:100B000014051878AA2802D15978C02905D0214C9B
:100B10000A34617AAA2907D008E00020195C295418
:100B2000401C0A28FADB29E0AA2804D00020215C16
:100B3000AA2902D006E0092207E021184978AA294B
:100B400000D10246401C0A28F1DB0021C2F10A0054
:100B500003E08E18A65D6E54491C8842F9DC002122
:100B600004E08E1A585C2E44491CB0729142F8DBA6
:100B70000020195C2154401C0A28FADB01F0B2FC69
:100B80000549D1F8980118B10020C1F8980170BD4D
:100B90000120FAE7945E002000802342C10002D5C4
:100BA00002490860704702494860704704040240E7
:100BB00000000240C10002D50249086070470249A6
:100BC00048607047040402400000024001684FF68C
:100BD000FE72114001600021016041608160C160CE
:100BE0003149314A0839904203D1486840F00F003A
:100BF00006E02D4A1432904204D1486840F0F000DB
:100C000048607047284A2832904203D1486840F42F
:100C10007060F5E7244A3C32904203D1486840F4C2
:100C20007040EDE7204A5032904203D1486840F4CA
:100C30007020E5E71C4A6432904203D1486840F4D2
:100C40007000DDE7184A7832904203D1486840F0DE
:100C50007060D5E7154A111F904203D1086840F033
:100C60000F0006E0114A1432904204D1086840F0A7
:100C7000F000086070470D4A2832904203D108689E
:100C800040F47060F5E7094A3C32904203D10868AD
:100C900040F47040EDE7054A50329042EAD10868CE
:100CA00040F47020E5E7000008000240080402401C
:100CB00002460020D10001D5034900E0034909683C
:100CC000114200D0012070470004024000000240A1
:100CD00030B5026847F6F0739A430C6A8B68234379
:100CE000D1E904452C4323438C692343CC69234336
:100CF0004C6A23438C6A234313430360CA684260EF
:100D00000A6882604968C16030BD7047F0B5CC7830
:100D1000002204F00F03E40601D58C7823430C78FD
:100D20004FF00F0C14F0FF0F4FF0010E1BD00568B1
:100D30000E880EFA02F42640A64210D196000CFA54
:100D400006F725EA070703FA06F5CE783D43282E75
:100D500002D0482E02D002E0446100E00461521C3F
:100D6000082AE5D305600A88FF2A1CD944680022B6
:100D700002F108060EFA06F50E882E40AE420ED19C
:100D800096000CFA06F7BC4303FA06F7CE783C430C
:100D9000282E00D14561CE78482E00D10561521C25
:100DA000082AE5D34460F0BD016170474FF6FF713A
:100DB0000180022181700421C17070471CB5134667
:100DC0000C4608220449CDE90012014622460120C2
:100DD000FFF746FD1CBD0000001001400148012145
:100DE0000160FDE77800002070B50D4C0025C4F8C7
:100DF00098510C48016821F070410160016841F090
:100E000040510160C4F89C51022004F5CC7401F0FB
:100E10001DFB01202060022001F018FB256070BD41
:100E200000802142000C014038B50121082000F06B
:100E30000DFAC020ADF8000014208DF80300032047
:100E4000054C8DF8020069462046FFF75FFFC02180
:100E50002046FFF7A9FF38BD000C014070B50D4CCE
:100E60000026C4F898610C48016821F070410160C7
:100E7000016841F0405101600125C4F89C510220F5
:100E800004F5CC7401F0E2FA2560022001F0DEFAEC
:100E9000266070BD00802142000C01402DE9F04722
:100EA000814617480024016821F070410160016803
:100EB00041F000410160134E254627464FF00108DE
:100EC000C6F89871022001F0C1FAC6F89881600650
:100ED000040ED6F81C0108B1641CE4B2012001F034
:100EE000B5FA6D1CEDB2082DEAD3B9F1000F04D0AC
:100EF000FFF77AFF2046BDE8F087FFF7AFFFF9E77D
:100F0000000C0140008021422DE9F04105461648C1
:100F1000016821F070410160016841F040510160B9
:100F2000124E0027C6F898713C464FF0010828067B
:100F300002D5C6F89C8101E0C6F89C716806050ED2
:100F4000022001F083FAC6F89881022001F07EFAAF
:100F5000C6F89871022001F079FA641CE4B2082CFA
:100F6000E5D3BDE8F0810000000C01400080214283
:100F700070B50D48016821F070410160016841F0D1
:100F800040510160094C0120C4F89C01C4F898014B
:100F9000042004F5CC7401F059FA002565600420A2
:100FA00001F054FA256070BD000C01400080214220
:100FB0000E4810B5016821F070410160016841F0F0
:100FC000405101600A4C0020C4F89801C4F89C010B
:100FD000042004F5CC7401F039FA0120206060602F
:100FE000BDE81040042001F031BA0000000C0140BF
:100FF0000080214270B513480024016821F070413F
:101000000160016841F0004101600F4D0126C5F803
:101010009C61304601F01AFAC5F89861012001F090
:1010200015FA07E0641CE4B2FA2C03D9FFF7C0FFFD
:10103000012070BDD5F81C010028F3D1C5F8980136
:1010400070BD0000000C01400080214238B5012134
:10105000042000F0FBF83020ADF8000010208DF8DF
:1010600003000320074C8DF8020069462046FFF775
:101070004DFE30212046FFF797FE03490020C1F8BE
:10108000980138BD0008014000002342AFF3008002
:1010900002494AF6AA20086070470000003000406C
:1010A000F8B50121C02000F0D1F840F2FF76ADF88C
:1010B000006010250F4F8DF8035003248DF8024077
:1010C00069463846FFF722FE31463846FFF76CFE88
:1010D0004020ADF800008DF803508DF80240064C1A
:1010E00069462046FFF712FE40212046FFF75CFECE
:1010F000F8BD0000001C014000180140084C4FF4EE
:10110000FA75D4F8A40148B10021C4F8A41105A0CF
:10111000FFF7D0F8284602F09BF8F2E70121F4E748
:10112000008023427461736B2030206973207275D4
:101130006E6E696E67210D0A000000004FF47A742C
:1011400003A0FFF7B7F8204602F082F8F8E70000A6
:101150007461736B20322069732072756E6E696ED4
:1011600067210D0A0000000003A0FFF7A3F81E206E
:1011700002F06EF8F8E700007461736B20332069A9
:10118000732072756E6E696E67210D0A0000000093
:10119000FEE77047024908430249086070470000B3
:1011A0000000FA050CED00E02DE9F047FFF73CFEEA
:1011B0004FF6FF784FF48749424600214846FFF733
:1011C000FDFD00240D4D0E4F022688B13E6001202A
:1011D00001F020F942460021484600F059FF50B185
:1011E0003E60012001F016F9BDE8F047FFF72EBF81
:1011F000C5F89C41EBE7C5F8A041F2E70080234227
:1012000078000020044A0029516901D0014300E020
:10121000814351617047000000100240044A0029D8
:10122000D16901D0014300E08143D16170470000E2
:1012300000100240044A0029116901D0014300E076
:10124000814311617047000000100240044A0029E8
:10125000916901D0014300E0814391617047000032
:1012600000100240044A0029D16801D0014300E087
:101270008143D160704700000010024030B5204A21
:101280005168204B11F00C0103D0042901D008292A
:1012900001D0036012E05168536801F470114FF0FF
:1012A000020413F4803F04EB914102D053689B0386
:1012B00001D5154B00E0134B5943016051680F23D2
:1012C00003EA1111114B5C5C0168E1404160546814
:1012D000072505EA14241C5D21FA04F4846054688F
:1012E00005EAD4241B5DD940C1605268032303EA98
:1012F0009232064B1B1F9A5CB1FBF2F1016130BDCB
:101300000010024000127A0000093D009800002001
:1013100038B501210820FFF799FF4FF40054ADF8CC
:10132000004010208DF803000320064D8DF80200C8
:1013300069462846FFF7EAFC21462846FFF734FDB8
:1013400038BD0000000C01402DE9F047154F044660
:10135000DDF8209038781D461646884608B900F01A
:10136000A7FE7869A04219D9EFF31180202181F3FB
:1013700011880C4A04EB440102EBC10134B1002294
:10138000C1F860800A67C1E91965CA66C0B280F316
:101390001188C1F874900020BDE8F0874FF0FF304D
:1013A000FAE70000305400202DE9F047154F0446BD
:1013B000DDF8209038781D461646884608B900F0BA
:1013C00077FE3869A04219D9EFF31180202181F30B
:1013D00011880C4A04EB440102EBC10134B1C1F89D
:1013E0001880C1E9076500228A624A62C0B280F3B0
:1013F0001188C1F82C900020BDE8F0874FF0FF3035
:10140000FAE70000305400202DE9F0471B4D044658
:10141000164628780F4608B900F04AFE04EB44004F
:1014200005EBC005B846D5E91B94002760354C454F
:1014300011D9A868071BB74200D3374668683A46F7
:1014400001194046FFF72CF8A868F61B3C44B84445
:10145000A04200D10024A9EB0400B04200D206460D
:101460003EB16868324601194046FFF719F8374423
:10147000344407B12C613846BDE8F0873054002071
:101480002DE9F04188461A4900EB400001EBC00409
:101490001646A06A656A1834A84222D8A1684F1B74
:1014A000791EB14207D3606841462844FEF7F8FF31
:1014B000A819E06012E00844B04216D3B742F2D84F
:1014C00060683A4628444146FEF7EAFFF21B15469B
:1014D00008EB07016068FEF7E3FFE5600120BDE867
:1014E000F081401B401EB042DDD20020F7E7000033
:1014F00030540020084810B50168054B054A0846DD
:1015000000F04AF8BDE810404FF0805000F0C0BA3B
:101510003D2300088C4200087C00002070B5EFF3EA
:101520001184202080F311881A48A0F12C0501466F
:101530006A6804E042F0800301F8013BD2097F2A87
:10154000F8D801F8012BAA6804E042F0800301F802
:10155000013BD2097F2AF8D801F8012B2A6904E05F
:1015600042F0800301F8013BD2097F2AF8D801F844
:10157000012B022201F8012B182200F033FEE0B209
:1015800080F31188686A002802D0BDE870400047E7
:1015900070BD0000145D00202DE9F8439846154603
:1015A0000E46074600244FF480630D4A0DA101202A
:1015B0000094FFF7F9FE08230C4A0AA101200094C9
:1015C000FFF7C2FE0A484FF080510161094949689E
:1015D0004760C0E90261C0E908580470BDE8F883BB
:1015E000E85800205379735669657700B0000020F1
:1015F000E85C0020001000E010B5EFF3118420201B
:1016000080F3118804481122014600F0EBFDE0B29E
:1016100080F3118810BD0000145D002010B5014654
:10162000EFF31184202080F311880C48A0F12C02E4
:101630001269891A8A08014604E042F0800301F821
:10164000013BD2097F2AF8D801F8012B082200F0CB
:10165000C9FDE0B280F3118810BD0000145D0020C8
:1016600010B50146EFF31184202080F311880C4857
:10167000A0F12C021269891A8A08014604E042F09E
:10168000800301F8013BD2097F2AF8D801F8012B29
:10169000042200F0A7FDE0B280F3118810BD000025
:1016A000145D002010B50146EFF31184202080F373
:1016B00011880C48A0F12C021269891A8A08014687
:1016C00004E042F0800301F8013BD2097F2AF8D8F8
:1016D00001F8012B062200F085FDE0B280F31188AD
:1016E00010BD0000145D00200A4810B5006A48B122
:1016F000006838B180470A460146BDE810400D2019
:1017000000F02AB804484168BDE810400C2000F001
:1017100005B80000E85C0020001000E070B502464B
:10172000EFF31184202080F311880A48054604E075
:1017300041F0800300F8013BC9097F29F8D800F87F
:10174000011B0146284600F04DFDE0B280F31188F0
:1017500070BD0000145D002070B50546EFF31184E4
:10176000202080F311880F48034604E041F08006F2
:1017700000F8016BC9097F29F8D800F8011B04E0C3
:1017800042F0800100F8011BD2097F2AF8D800F846
:10179000012B01462A46184600F024FDE0B280F3F2
:1017A000118870BD145D00202DE9F0410646EFF36D
:1017B0001184202080F311881448054604E041F08C
:1017C000800700F8017BC9097F29F8D800F8011BC0
:1017D00004E042F0800100F8011BD2097F2AF8D80A
:1017E00000F8012B04E043F0800100F8011BDB0945
:1017F0007F2BF8D800F8013B01463246284600F01E
:10180000F1FCE0B280F31188BDE8F081145D0020A6
:101810002DE9F0410646EFF31184202585F3118868
:101820000698194D2F4604E041F0800C07F801CBD3
:10183000C9097F29F8D83970791C04E042F0800783
:1018400001F8017BD2097F2AF8D801F8012B04E0C6
:1018500043F0800201F8012BDB097F2BF8D801F857
:10186000013B04E040F0800201F8012BC0097F2811
:10187000F8D801F8010B3246284600F0B3FCE0B27C
:1018800080F31188BDE8F081145D002010B5024698
:10189000EFF31184202080F311880448014600F002
:1018A000A1FCE0B280F3118810BD0000145D00209F
:1018B00070B51B494A68002A30D0002103E0126944
:1018C000002A2BD0491C8142F9D3EFF31185202146
:1018D00081F3118813490C4604E040F0800301F8BD
:1018E000013BC0097F28F8D801F8010B0B4690682E
:1018F00004E040F0800103F8011BC0097F28F8D8FC
:1019000018701168581C802200F006FC014616224F
:10191000204600F067FCE8B280F3118870BD00003B
:10192000A8000020145D0020054810B54468002C74
:1019300004D0E06800B180472469F8E710BD0000DA
:10194000A800002010B5EFF31184202080F3118847
:101950000B4A0A480146127804E042F0800301F87D
:10196000013BD2097F2AF8D801F8012B1B2200F095
:1019700039FCE0B280F3118810BD0000145D002036
:10198000A800002070B5EFF31185202181F31188A4
:10199000074C01468022204600F0BEFB01460E2285
:1019A000204600F01FFCE8B280F3118870BD0000F3
:1019B000145D00202DE9F0410446EFF3118620204C
:1019C00080F311882B492068A1F12C070D463A6954
:1019D000801A800804E040F0800201F8012BC00961
:1019E0007F28F8D801F8010B0B46A06804E040F00E
:1019F000800103F8011BC0097F28F8D81870581C13
:101A00002022616800F088FB01460922284600F088
:101A1000E9FB20683A692946801A800804E040F012
:101A2000800201F8012BC0097F28F8D801F8010BCA
:101A3000E06804E040F0800201F8012BC0097F2833
:101A4000F8D801F8010B206904E040F0800201F8A9
:101A5000012BC0097F28F8D801F8010B002001F8FC
:101A6000010B1522284600F0BDFBF0B280F311886F
:101A7000BDE8F081145D00200448006A002803D00E
:101A80004068002800D0004770470000E85C002054
:101A90000149086170470000E85C002002490969BB
:101AA000401A800870470000E85C002070B5294D9E
:101AB000287800284CD101202870EFF311842026CB
:101AC00086F311880A222449FFF7DAFCE0B280F39A
:101AD00011880A20FFF7DAFEEFF3118486F31188EC
:101AE00005F12C0001466A6804E042F0800301F829
:101AF000013BD2097F2AF8D801F8012BAA6804E03B
:101B000042F0800301F8013BD2097F2AF8D801F89E
:101B1000012B2A6904E042F0800301F8013BD2095D
:101B20007F2AF8D801F8012B022201F8012B182294
:101B300000F058FBE0B280F31188686A00B180477A
:101B4000FFF7D2FDFFF798FFBDE87040FFF7FABE40
:101B500070BD0000E85C00207042000870B5EFF333
:101B60001184202080F311880748A0F12C052978E2
:101B700029B10B22014600F035FB00202870E0B2AD
:101B800080F3118870BD0000145D002070B5EFF384
:101B90001185202181F311880A4C014680222046BC
:101BA00000F0BAFA012100F8011B002100F8011B26
:101BB00001461A22204600F015FBE8B280F3118896
:101BC00070BD0000145D00202DE9F8430D46174656
:101BD00080461E46052213A12846089CFEF710FCED
:101BE00000281DD0114A1168082904D3BDE8F84324
:101BF0000F48FFF7CBBF01EB8100DFF838C0491C6D
:101C000033464CF820800CEB8000C0E90364C0E947
:101C1000015711603A4629464046009400F046F8C4
:101C2000BDE8F88349444C4500000000B80000209E
:101C300094420008F45D002070B51A4C2268002A16
:101C40002FD00021184B06E001EB810553F82550F9
:101C5000854202D0491C9142F6D3501E814204D1E4
:101C600001EB810003EB800015E0914219D202EBF9
:101C7000820003EB800001EB810150F8142D43F842
:101C8000212003EB810142684A6082688A60C26851
:101C9000CA6002690A611421FEF74FFC2068401EE9
:101CA000206070BDB8000020F45D00202DE9F041F7
:101CB00086B00D4604461F46164614216846DDF8D8
:101CC0003080FEF73AFC8DE8F0016846FFF772FEBF
:101CD00006B0BDE8F08100000CB500222648009255
:101CE0000192016841F4803101604FF4A063016802
:101CF00001F4003101910099491C0091019911B939
:101D000000999942F3D10168890333D501210191EA
:101D10001A490A6842F010020A600A6822F00302B7
:101D20000A600A6842F002020A6041684160416844
:101D30004160416841F480614160416821F47C1157
:101D40004160416841F4E8114160016841F08071EF
:101D5000016001688901FCD5416821F003014160FF
:101D6000416841F0020141604168C1F381010229EB
:101D7000FAD10CBD01920CBD0010024000200240BF
:101D800040F2DC5403A0FEF795FA204601F060FA19
:101D9000F8E700007461736B20312069732072755D
:101DA0006E6E696E67210D0A000000004FF0E021A1
:101DB0000428086903D020F004000861704740F04F
:101DC0000400FAE710B501F0D3FF012803D0BDE805
:101DD000104001F07DBC10BD0F4810B5016841F006
:101DE0000101016041680D4A1140416001680C4ADF
:101DF00011400160016821F480210160416821F4F3
:101E0000FE0141604FF41F018160FFF765FF054946
:101E10004FF00060086010BD001002400000FFF8A5
:101E2000FFFFF6FE08ED00E010B501218C0720460B
:101E300000F013F8002809D00121204600F00AF82C
:101E4000FFF724F902480168491C016010BD000039
:101E5000C0000020C9430182704702460020138A57
:101E600092890B4202EA010202D0002A00D001202E
:101E70007047000030B591B001210420FFF7E6F96A
:101E800001214804FFF7CAF901210846FFF7BAF912
:101E90000FA8FEF78BFF0424ADF83C401820264D18
:101EA0008DF83F000FA92846FEF730FF0821ADF856
:101EB0003C108DF83F400FA92846FEF727FF1F4D25
:101EC000284600F049F80BA800F0D6F800244FF49B
:101ED00016500B90ADF834400C20ADF83040ADF802
:101EE0003600ADF83240ADF838400BA9284600F076
:101EF0006DF801224021284600F026F8104D2846B2
:101F0000FEF764FE0D486946001D00900D48CDE9BE
:101F100001042815CDE903048020CDE90504202023
:101F2000CDE907404FF44050CDE909042846FEF7BB
:101F3000CFFE11B030BD0000000801400044004059
:101F40006C000240B25E0020002A828A01D00A435F
:101F500000E08A4382827047174910B588420AD14F
:101F600001218C032046FFF77DF92046BDE8104093
:101F70000021FFF777B91149884202D101214C04B1
:101F800010E00F49884202D101218C040AE00D497A
:101F9000884202D10121CC0404E00B4988420AD1D5
:101FA00001210C052046FFF745F92046BDE8104009
:101FB0000021FFF73FB910BD003801400044004048
:101FC00000480040004C00400050004030B504463E
:101FD000008A85B00D464CF6FF710840E988014340
:101FE0002182A0894EF6F3110840A9882A8911435D
:101FF0006A8902431143A181A08A4FF6FF4108403C
:10200000A9890143A1826846FFF738F9194884423B
:1020100001D1039800E00298A189090400EBC001F6
:1020200001EB0010296801D5490000E08900B0FBF0
:10203000F1F06422B0FBF2F109010B096FF0180511
:102040006B4300EB8300A3891D044FF0320306D5D8
:1020500003EBC000B0FBF2F000F0070005E003EB7B
:102060000010B0FBF2F000F00F000843208105B033
:1020700030BD0000003801404FF4165101600021CE
:102080008180C18001810C22428181817047FEE7FD
:102090001CB513460C4610220449CDE90012014636
:1020A00022460020FEF7DCFB1CBD000000100140B2
:1020B00010B5124C032000212061606110A0A061C6
:1020C00004F1A800E0614FF48060A16220626162C7
:1020D0000BA0E162206604F5956060661020216720
:1020E000C4E91A01616709A1E01DFEF7B5F908A16D
:1020F0002046FEF7B1F92020A07110BD3054002019
:102100005465726D696E616C000000005254540099
:10211000534547474552000010B5002300E05B1CC3
:10212000CC5C002CFBD1934200D91346FF2B02D28A
:1021300000F8013B07E0FF2200F8012B1A0A00F823
:10214000013B00F8012B002204E011F8014B00F8DC
:10215000014B521C9A42F8D310BD08B501226946C2
:102160001046FFF751F900281ADD9DF800000528F8
:1021700023D008DC012814D0022815D0032816D05B
:10218000042806D116E006281AD007281BD080287C
:102190001CD0802804D3012269461046FFF734F989
:1021A00008BDFFF783FC08BDFFF7D8FC08BDFFF7AB
:1021B0009BFA08BDFFF760FC08BDFFF7AFF908BD4B
:1021C000FFF7C0FB08BDFFF7AFFB08BD0122694662
:1021D0001046FFF719F90028F7DD9DF80000FFF71A
:1021E00067FB08BD2DE9F041304C074615462078C5
:1021F0000E464FF00108012807D080B3022804D111
:1022000000F05AF8207801283ED1202D04D2E1694F
:1022100008FA05F0014237D1EAB2182D02D2781E31
:10222000027017E0F11B7F2906D9C8097B1E41F017
:1022300080011870B81E00E0781E7F2D017007D94C
:10224000E909421E117045F0800100F8021D01E00D
:1022500000F8012D16494D68E168691A05E013E0A0
:1022600041F0800206F8012BC9097F29F8D806F849
:10227000011B321A01460120FFF702F908B1E5609F
:1022800002E02078401C20700A4850F8841F406803
:10229000814208D0A078002805D184F80280FFF799
:1022A0005CFF0020A070BDE8F0810000E85C002029
:1022B000001000E0305400203EB50120164C8DF88F
:1022C00000006A46511C606904E040F0800301F898
:1022D000013BC0097F28F8D801F8010B0F48456879
:1022E000E068281A04E040F0800301F8013BC009CF
:1022F0007F28F8D801F8010B8A1A69460120FFF7F8
:10230000BFF820B1E5602178491E21703EBD6169AA
:10231000491C61613EBD0000E85C0020001000E047
:1023200070B501F039FD4FF47A720146A1FB020548
:10233000002303FB025201FB032170BD10B504A072
:10234000FFF720FBBDE810400EA0FFF71BBB00000D
:102350004E3D4672656552544F532044656D6F2063
:102360004170706C69636174696F6E2C443D436F9A
:10237000727465782D4D342C4F3D4672656552540C
:102380004F530000492331353D5379735469636BD2
:1023900000000000F8B500240A4D0B4E0DE004EBE0
:1023A000840705EB87000169001D009190E80E008D
:1023B00055F82700FFF77AFC641C30688442EED39E
:1023C000F8BD0000F45D0020B800002010B5042026
:1023D000FFF7ECFC0C480D490D4A0068B0FBF1F327
:1023E000B0FBF1F14FF47A7041431370012050803B
:1023F0004FF0E020026942F002020261416101698E
:1024000041F00101016110BD7C00002040420F003D
:102410009000002070B5044601F0AAFC01280CD001
:10242000094D6888844203D3B4FBF0F000F010FF3C
:102430006888B4FBF0F100FB11444FF47A706043FC
:10244000BDE8704000F002B89000002070B54FF079
:10245000E02500216C69094AAB6912785043AA69EA
:102460009A42FCD002D2A3EB020302E0A4EB0206E4
:102470003344194413468142F1D370BD90000020CB
:1024800005490968C90105D54FF060410A68002A6D
:10249000FCD0087070470000FCED00E01CB5FEF7B2
:1024A0000EFBFEF781FE094909200860FFF722F8BC
:1024B00007490120CDE900010023802205A1084839
:1024C00001F02AFC00F0E0FFFEE7000074000020AD
:1024D000C80000204150505F5374617274000000C6
:1024E000B109000800210E4A0220135C401C194467
:1024F00089B20728F9DD107A084210D09078D17897
:10250000084B00EB01210A20B1FBF0F11980117991
:10251000527901EB0221B1FBF0F0034908807047CA
:10252000A85E0020C4000020C60000202DE9F04174
:10253000184E0F460446F5683068001D00F0EEFCAA
:1025400038B9306890F82C100120884031698143F7
:102550003161601C07D137B13168BDE8F0410E48E8
:10256000091D00F014BD30682C44AC424460316851
:1025700005D2B06BBDE8F041091D00F0F0BC706BF6
:10258000091D00F0ECFCB06A844200D2B462BDE8E0
:10259000F081000000000020F4030020F8B504469C
:1025A00000F002FD354EB068401CB0603068344F1A
:1025B00010B1706930B32BE03460B068012827D1C6
:1025C000002505EB850007EB800000F0BAFC6D1CD0
:1025D000202DF6D32B4800F0B4FC2A48143000F02C
:1025E000B0FC2848283000F0ACFC26483C3000F015
:1025F000A8FC2448503000F0A4FC2248706314303A
:10260000B06305E03068E16AC06A884200D834608F
:10261000706A401C7062606464B12046FEF7FEFF81
:10262000236B206804F13401C01A00902046E26A4E
:10263000FFF7CAFA2046FFF735F8E06A0121326950
:1026400081401143316100EB800007EB8000211DC8
:1026500000F09DFC00F0E4FC706900280CD03068AC
:10266000E16AC06A884207D207494FF0805008608B
:10267000BFF34F8FBFF36F8FF8BD00000000002045
:1026800024010020A403002004ED00E010B500F0B8
:102690008BFC0E4C2068A0B90D4800F052FC0C4891
:1026A000143000F04EFC0A48E06014302061002233
:1026B0001021052001F022F8206010B105A100F0E2
:1026C00089FDBDE8104000F0ABBC00003C000020DC
:1026D00008040020546D72510000000030B4026CF8
:1026E0000B46002A0BD0C1681144C1608468A14226
:1026F00001D30168C16030BC1846FDF7D1BE30BCC3
:1027000070472DE9F041856B174604460026026CA0
:1027100082B1C7B1E068FDF7C3FEE168206C091A19
:10272000E1602268914202D2A168081AE060022F9B
:1027300016D017E02068A8B9A06801F0AFFB0646E4
:102740000020A0600EE06068FDF7AAFE216C6068C2
:1027500008446060A168884204D32068606001E09A
:1027600005B16D1E6D1CA5633046BDE8F08110B546
:102770000446006B00F086FC2046BDE8104000F0E7
:1027800081BC000010484FF4A041420706D0C01D94
:102790000D4920F00700411AC1F5A0410B4A002362
:1027A0000144C2E900030839103A21F00701116021
:1027B0004B600B600B1AC0E9001393604FF00040B0
:1027C0005360D06070470000300400206C0000208F
:1027D000134E144DA6F52F774FF08058DFF8489030
:1027E00011E000F0E1FBF068C468201D00F096FBEA
:1027F000A868401EA8606868401E686000F010FC71
:102800002046FFF7B4FF68680028EAD1386801283D
:10281000F9D9C9F80080BFF34F8FBFF36F8FF2E78C
:10282000E00300200000002004ED00E02DE9F04767
:10283000DDE90984089D994617460E00824605D1B8
:102840004FF4587223A129A0FDF734FDB900A52249
:10285000206BFDF76AFE6FF00301206B01EB87012F
:10286000084420F00707780705D04FF45D7219A1DE
:102870001EA0FDF71FFD00202218315C82F83410E5
:10288000315C11B1401C1028F6D3002684F8436057
:10289000202D00D31F25E562C4E91356201D00F04A
:1028A0005BFB04F1180000F057FB2461C5F1200028
:1028B0006462A061666584F858604A4651463846AD
:1028C00000F006FB2060B8F1000F01D0C8F800400E
:1028D000BDE8F0872E2E5C2E2E5C46726565525444
:1028E0004F535C7461736B732E6300004572726F9B
:1028F000723A25732C25640D0A00000030B5114989
:1029000000E011460A688242FBD34B685C1884429F
:1029100003D1406818444860084643681C18944234
:1029200009D1084C103C2468A24209D052681A44CC
:1029300042600A6812680260814200D0086030BDBF
:102940000460F9E76C00002070B5002441600B4D75
:102950000061914206D8D11A8269914206D2011DC6
:10296000286907E09A4203D2994201D3012403E087
:10297000011DE86800F0F3FA204670BD3C0000201D
:1029800010B5044600F010FBA06B20B1002400F04D
:1029900047FB204610BD0124F9E70000F3B581B0E4
:1029A0000F4601980026846C2CB940F645321BA1D5
:1029B00020A0FDF77FFCA06BE16B884205D340F6B9
:1029C000463216A11BA0FDF775FCA06BE16B884297
:1029D00016D294F945502046FFF760F801460023CF
:1029E0001A465A200097FEF713FF3A4601A92046DF
:1029F000FFF787FE0646681C04D06D1C84F845501E
:102A00003046FEBD606A0028FAD004F1240001F0CF
:102A1000ABFA0028F4D00126F2E700002E2E5C2E3F
:102A20002E5C4672656552544F535C7175657565D1
:102A30002E6300004572726F723A25732C25640D67
:102A40000A000000F8B5054614480E46C068C06884
:102A5000C468201D00F062FAE069012817D1A0695E
:102A60002B46411932462046FFF76EFF78B1002011
:102A70000346014600902A46204601F0B1FB30B9DA
:102A800007494FF4F47201F11800FDF713FC616A75
:102A900001B02046BDE8F040084700003C0000209F
:102AA0004441000870B586B02F4E53E001980028CD
:102AB00006DADDE90301029A90470198002849DB14
:102AC000039C606910B1201D00F028FA05A800F0F1
:102AD000A7F8054601980A283CD2DFE800F0050572
:102AE000053B273805053B270298A16903460144A9
:102AF0002A462046FFF728FF00282BD0616A20468F
:102B00008847E069012825D1002000900298A1693A
:102B1000002342181946204601F062FBD0B940F26A
:102B2000013212A117A0FDF7C5FB13E00298A061C6
:102B300028B94FF446720DA112A0FDF7BBFBA069A6
:102B40002B4641191A462046FFF7FEFE02E02046BA
:102B500000F098FA002201A9306800F0C9FF0028AF
:102B6000A4D106B070BD00003C0000202E2E5C2ECB
:102B70002E5C4672656552544F535C74696D657284
:102B8000732E63004572726F723A25732C25640DA3
:102B90000A000000F8B50D46064600F0CBFC68467A
:102BA00000F03EF80446009810B101F02DFAF8BD8F
:102BB0001148ADB101690968D9B10025311B2A4618
:102BC000006800F023FB01F01FFA0028EFD10B4949
:102BD0004FF080500860BFF34F8FBFF36F8FF8BD89
:102BE000A642EBD801F010FA21463046FFF72AFF43
:102BF000F8BD0125E2E700003C00002004ED00E004
:102C00000648416B096829B1416BC968C9684968C0
:102C1000816270474FF0FF31FAE7000000000020AA
:102C200070B5054601F0B2F8064E0446B06884421D
:102C300003D200F009F8012000E0002028602046BF
:102C4000B46070BD3C000020F8B5184E26E0C068A6
:102C5000C4680568201D00F061F9616A2046884754
:102C6000E06901281AD1A0692844A84206D9246144
:102C70006060211DF06800F072F90FE0002003464B
:102C8000014600902A46204601F0AAFA30B90849C8
:102C900040F2723201F11800FDF70CFBF068016898
:102CA0000029D4D13169C6E90310F8BD3C000020E9
:102CB0004441000808484068401C04D0CA2207A1CB
:102CC00011A0FDF7F7FA502080F31188BFF34F8F62
:102CD000BFF36F8FFEE70000500000202E2E5C2E09
:102CE0002E5C4672656552544F535C706F7274610E
:102CF000626C655C525644535C41524D5F434D33A8
:102D00005C706F72742E63004572726F723A257335
:102D10002C25640D0A000000084CE068016839B1F8
:102D2000002139B10020FFF735FFFFF7BBFEF4E7C4
:102D30000121F6E7C0680068F5E700003C000020CC
:102D40002DE9F041044600F02FF994F9455004F1C3
:102D5000240610E0A06C20B100212046FFF71EFEE3
:102D600004E0606A48B1304601F0FEF808B100F0B6
:102D700025FB6D1E6DB2002DECDC4FF0FF3684F8A4
:102D8000456000F04DF900F00FF994F9445004F15A
:102D9000100709E0206948B1384601F0E5F808B1AC
:102DA00000F00CFB6D1E6DB2002DF3DC84F8446066
:102DB000BDE8F04100F034B92DE9F04105460026A8
:102DC00000F0B8FB324F386808B9FFF7DBFCF86851
:102DD00005424FD1002D4DD0083568070BD005F0C6
:102DE0000700C0F108000544680704D0952229A116
:102DF00033A0FDF75FFA002D3CD07868854239D8C2
:102E0000234910310846046801E021460446606801
:102E1000A84202D220680028F7D13868B846844218
:102E200028D00E682068086060680836401B1028AB
:102E30000ED96719780704D0C22216A120A0FDF789
:102E400039FA6068401B786038466560FFF756FDC8
:102E50006168D8F804004246401AC8F80400D8F85F
:102E60000830984200D29060D8F80C00014300204E
:102E7000C4E9000101F0C8F8700705D04FF4817271
:102E800004A10FA0FDF716FA3046BDE8F08100005E
:102E90005C0000202E2E5C2E2E5C4672656552541E
:102EA0004F535C706F727461626C655C4D656D4D03
:102EB000616E675C686561705F342E6300000000BE
:102EC0004572726F723A25732C25640D0A0000005A
:102ED00010B5031F4FF080741C601B1F21F001010F
:102EE0001960191F024B0B60143940380A6010BD7D
:102EF000B52C000838B500F049FF02460020064C0A
:102F0000034600900121A06901F06AF96069BDE8FB
:102F1000384000F0D9B90000C8000020D0E90132E3
:102F200001699A60D0E901235A604A68824201D15E
:102F300082684A60002202610868401E08600868D2
:102F4000704700F108014FF0FF32C0E90112C16083
:102F5000016100210160704700210161704730B5B7
:102F60000C68621C02D000F1080202E0026904E071
:102F70001A4653681D68A542FAD953684B60996098
:102F80008A60516008610168491C016030BD426877
:102F90004A6093688B60936859609160086101682A
:102FA000491C016070470000502080F31188BFF376
:102FB0004F8FBFF36F8F09494868401C4860012854
:102FC0000AD10748006810F0FF0F05D04FF4B37224
:102FD00004A10FA0FDF76EB970470000500000205B
:102FE00004ED00E02E2E5C2E2E5C46726565525478
:102FF0004F535C706F727461626C655C52564453DF
:103000005C41524D5F434D335C706F72742E6300B0
:103010004572726F723A25732C25640D0A00000008
:1030200010B5084C606828B940F26D1206A111A0D5
:10303000FDF740F96068401E606001D180F311889F
:1030400010BD0000500000202E2E5C2E2E5C46721B
:10305000656552544F535C706F727461626C655C4D
:10306000525644535C41524D5F434D335C706F7216
:10307000742E63004572726F723A25732C25640DAD
:103080000A00000070B500282AD0164DA0F10804EF
:103090006068E968084205D14FF48B7212A11DA047
:1030A000FDF708F9206828B140F217120EA119A007
:1030B000FDF700F96068E968084211D02268002A2B
:1030C0000ED18843606000F035FA60686968084492
:1030D00068602046FFF712FCBDE8704000F094BF26
:1030E00070BD00005C0000202E2E5C2E2E5C46720F
:1030F000656552544F535C706F727461626C655CAD
:103100004D656D4D616E675C686561705F342E63FF
:10311000000000004572726F723A25732C25640D11
:103120000A0000004FF0E0200021016181610549A3
:103130004FF47A720968B1FBF2F1491E416107212F
:10314000016170477C00002010B5FDF78FF8104C2E
:1031500010280CD300F1E02090F8F0032178884289
:1031600005D240F2A5220BA115A0FDF7A3F818483F
:103170000068A16800F4E060884207D9BDE810400B
:1031800040F2B52203A10EA0FDF794B810BD0000D7
:10319000500000202E2E5C2E2E5C46726565525427
:1031A0004F535C706F727461626C655C525644532D
:1031B0005C41524D5F434D335C706F72742E6300FF
:1031C0004572726F723A25732C25640D0A00000057
:1031D0000CED00E010B50C460B4B002153F83120EC
:1031E0001AB1491C0829F9D310BD43F8314003EB4B
:1031F000C1014860FEF752FC22460146BDE810407E
:103200007120FEF7A9BA0000E400002070B5154651
:103210000E460446FFF7C8FE94F944100020491CEE
:1032200001D184F8440094F94510491C01D184F877
:103230004500FFF7F5FEA06B28B92A46314604F198
:10324000240000F0EDF82046BDE87040FFF778BD9F
:1032500010B5040016D0104A126B2AB14FF4A462C4
:103260000EA114A0FDF726F800F064F921462320F2
:10327000FEF754FA00212046FFF758F900F0C4FE8B
:10328000002807D10F494FF080500860BFF34F8FDF
:10329000BFF36F8F10BD0000000000202E2E5C2EAB
:1032A0002E5C4672656552544F535C7461736B7348
:1032B0002E6300004572726F723A25732C25640DDF
:1032C0000A00000004ED00E070B50446FFF76CFE54
:1032D000284D04B92C68201DFFF720FE58B9E06A7C
:1032E000254A00EB800152F8211021B901218140CB
:1032F000286988432861A06A18B104F11800FFF713
:103300000DFE686A401C68622868844207D1211D4E
:103310001A48FFF73CFE6868401C686007E0A86830
:10332000401EA8602046FFF722FAFFF769FC2046FE
:10333000FEF7B4FB01462220FEF7F0F92046FEF727
:103340007BFCFFF76DFE6869002812D02868844274
:103350000FD1286B28B140F2B64209A10EA0FCF7AC
:10336000A9FF11494FF080500860BFF34F8FBFF3A2
:103370006F8F70BD0000002024010020E0030020BA
:103380002E2E5C2E2E5C4672656552544F535C7433
:1033900061736B732E6300004572726F723A25730E
:1033A0002C25640D0A00000004ED00E002490A6AC1
:1033B0000260C96841607047000000200149012097
:1033C000C86170470000002070B50D46040005D1AB
:1033D00040F69F3207A10DA0FCF76CFF0F48016873
:1033E00020461831FFF7BBFD2846BDE8704001219B
:1033F000FFF79CB82E2E5C2E2E5C467265655254EB
:103400004F535C7461736B732E6300004572726F6F
:10341000723A25732C25640D0A000000000000207C
:1034200070B514460E46050005D140F6CA320BA110
:1034300010A0FCF73FFF1348016828461831FFF73A
:10344000A6FD0CB14FF0FF362420FEF71FFA2146EF
:103450003046BDE87040FFF769B800002E2E5C2EA4
:103460002E5C4672656552544F535C7461736B7386
:103470002E6300004572726F723A25732C25640D1D
:103480000A000000000000201CB51C480024CDE903
:103490000040234682221AA11B4800F03DFC01286F
:1034A00003D100F063FE01280AD0401C25D102B0F0
:1034B00040F60402BDE8104014A11AA0FCF7FABEC1
:1034C000502080F31188BFF34F8FBFF36F8F0B48ED
:1034D0004FF0FF312C38816201214161C4600168E5
:1034E000C26A914202D1FEF787F802E00068FEF757
:1034F000B7F8BDE81C4000F071B81CBD2C000020DE
:1035000049444C4500000000D12700082E2E5C2EB7
:103510002E5C4672656552544F535C7461736B73D5
:103520002E6300004572726F723A25732C25640D6C
:103530000A0000000248016B491C0163704700004B
:103540000000002070B5194D286B10B10120E86112
:1035500070BD0020E8612869154EB0FA80F0C0F116
:103560001F0000EB800456F8240028B940F688328A
:1035700010A116A0FCF79EFE06EB840000F10802E5
:10358000416849684160914201D149684160C86819
:1035900028602868E96A884203D1BDE87040FEF7D8
:1035A0002BB82868BDE87040FEF75AB8000000202C
:1035B000240100202E2E5C2E2E5C4672656552542E
:1035C0004F535C7461736B732E6300004572726FAE
:1035D000723A25732C25640D0A0000007CB52A4D33
:1035E00028780190FF20287028788DF800009DF839
:1035F00000009DF8001000F0F000884205D04FF464
:103600008A7222A12CA0FCF755FE9DF800002E4CDA
:1036100000F0500020700720A06006E0401EA0606F
:103620009DF8000040008DF800009DF800000006A5
:10363000A068F3D403280ED040F2271213A11EA0D5
:10364000FCF738FEA068032805D04FF498720FA14C
:1036500019A0FCF72FFE207A000200F4E060A060C1
:10366000019828701948016841F4700101600168EF
:1036700041F070410160FFF755FD00206060FCF7EC
:10368000BFFD00207CBD000000E400E02E2E5C2E7B
:103690002E5C4672656552544F535C706F72746154
:1036A000626C655C525644535C41524D5F434D33EE
:1036B0005C706F72742E63004572726F723A25737C
:1036C0002C25640D0A0000005000002020ED00E0D1
:1036D00010B5502080F31188BFF34F8FBFF36F8F69
:1036E00000F062FB18B104494FF0805008600020E0
:1036F00080F3118810BD000004ED00E02DE9F041D9
:1037000017460D46060005D14FF4BB7213A119A050
:10371000FCF7D0FDEDB106FB05F05430FFF74CFB94
:10372000040013D004F15400ADB12060C4E90F656A
:103730002046012100F026F884F850700021A16491
:103740003B462A4631467320FEF72EF82046BDE858
:10375000F0810020E1E72460E8E700002E2E5C2ED7
:103760002E5C4672656552544F535C717565756584
:103770002E6300004572726F723A25732C25640D1A
:103780000A00000070B50D46040005D140F2031296
:103790001CA122A0FCF78EFDFFF706FCD4E90F2048
:1037A000216802FB0011A1600021A1632168616012
:1037B0000A46D4E90F01401E00FB0121E1602146C9
:1037C0004FF0FF3001F8440F487004F110004DB184
:1037D000FFF7B7FB04F12400FFF7B3FBFFF720FC72
:1037E000012070BD21690029F8D000F0BDFB002840
:1037F000F4D00E494FF080500860BFF34F8FBFF3F5
:103800006F8FEBE72E2E5C2E2E5C46726565525450
:103810004F535C71756575652E6300004572726F5C
:10382000723A25732C25640D0A00000004ED00E0B7
:103830002DE9FF4F83B01D468B4604004FF0000773
:1038400005D140F2F1225EA163A0FCF733FDBBF18C
:10385000000F07D1206C28B140F2F22258A15EA0DF
:10386000FCF728FD022D08D1E06B012805D040F2BD
:10387000F32253A158A0FCF71DFD00F079FA38B9E6
:10388000059828B140F2F6224DA153A0FCF712FD95
:103890004FF0000A4FF08058DFF84C91FFF784FB9F
:1038A000A06BE16B884205D3022D03D0059870B35D
:1038B00077B335E02046FEF7F1F8014600231A46BB
:1038C0005A200095FDF7A4FFA66B2A4659462046CC
:1038D000FEF717FFA16C39B1022D00D18EB9294630
:1038E0002046FFF75BF805E0616A19B104F1240096
:1038F00000F03AFB28B1C9F80080BFF34F8FBFF347
:103900006F8FFFF78DFB012007B0BDE8F08F00E05F
:1039100002E0FFF785FB21E001A8FFF747FD012743
:10392000FFF77EFBFFF706FEFFF73EFB94F944002E
:10393000401C01D184F844A094F94500401C01D1F9
:1039400084F845A0FFF76CFB05A901A800F09AF9DF
:1039500080B12046FFF7F4F900F056FB2046FEF751
:103960009DF8014600955A465A20059BFDF750FFE9
:103970000020C9E7FFF718FBA06BE16B884201D17B
:10398000012600E00026FFF74BFB9EB104F110007A
:103990000599FFF719FD2046FFF7D2F900F034FB37
:1039A00000287FF47BAFC9F80080BFF34F8FBFF3CF
:1039B0006F8F73E72046FFF7C3F900F025FB6DE733
:1039C0002E2E5C2E2E5C4672656552544F535C71F0
:1039D000756575652E6300004572726F723A2573C6
:1039E0002C25640D0A00000004ED00E02DE9F047ED
:1039F000984615468946040005D140F2C33232A1EB
:103A000037A0FCF757FCB9F1000F07D1206C28B1A3
:103A10004FF471722CA132A0FCF74CFCB8F1020FEC
:103A200008D1E06B012805D040F2C53226A12CA0B8
:103A3000FCF740FCFFF788FB5020EFF3118780F381
:103A40001188BFF34F8FBFF36F8FA06BE16B88427C
:103A50000FD3B8F1020F0CD02046FEF71FF8014635
:103A60002A466020FDF778FE002087F31188BDE824
:103A7000F08794F945602046FEF710F801462A4683
:103A80006020FDF769FE424649462046FEF739FEB2
:103A9000701C04D0761C84F845600120E5E7A06C1A
:103AA000012620B141462046FEF778FF06E0606A15
:103AB0000028F2D004F1240000F056FA0028ECD0DF
:103AC000002DEAD02E60E8E72E2E5C2E2E5C46728A
:103AD000656552544F535C71756575652E630000C2
:103AE0004572726F723A25732C25640D0A0000002E
:103AF0002DE9F74F84B08B4604004FF0000605D146
:103B00004FF4A06254A15AA0FCF7D4FBBBF1000F04
:103B100007D1206C28B140F204524FA154A0FCF709
:103B2000C9FB00F025F938B9069828B140F20952CE
:103B300049A14FA0FCF7BEFB4FF0010800274FF052
:103B40008059DFF83CA1FFF72FFAA56B3DB359462A
:103B50002046FEF7C3FD0020FDF7A0FF06462046E5
:103B6000FDF79CFF0146CDF8008032465C20069BA5
:103B7000FDF74EFE6D1EA563206950B104F11000E3
:103B800000F0F2F928B1CAF80090BFF34F8FBFF3ED
:103B90006F8FFFF745FA012007B0BDE8F08F069858
:103BA00008B11EB106E0FFF73BFA27E001A8FFF7D6
:103BB000FDFB0126FFF734FAFFF7BCFCFFF7F4F931
:103BC00094F94400401C01D184F8447094F94500F4
:103BD000401C01D184F84570FFF722FA06A901A81C
:103BE00000F050F80028204619D0FFF7A9F800F09F
:103BF0000BFA2046FEF7C4FE0028A4D00020FDF7F3
:103C00004DFF05462046FDF749FF0146CDF80080EF
:103C10002A465C20069BFDF7FBFD0020BCE7FEF773
:103C2000AFFE90B104F124000699FFF7CDFB2046CA
:103C3000FFF786F800F0E8F9002884D1CAF8009070
:103C4000BFF34F8FBFF36F8F7DE72046FFF778F804
:103C500000F0DAF977E700002E2E5C2E2E5C46721B
:103C6000656552544F535C71756575652E63000030
:103C70004572726F723A25732C25640D0A0000009C
:103C800004ED00E02DE9F0410C46050005D140F6B9
:103C9000654216A11BA0FCF70DFB2CB940F666424D
:103CA00012A118A0FCF706FBFFF77EF9194EF16888
:103CB0006B682268C81A571C07D02F68366AB7424B
:103CC00009D08B4207D8012400E00024FFF7A8F9AF
:103CD0002046BDE8F081824205D9101A20602846AE
:103CE000FFF764FBF1E700202060ECE72E2E5C2E4E
:103CF0002E5C4672656552544F535C7461736B73EE
:103D00002E6300004572726F723A25732C25640D84
:103D10000A000000000000202DE9FF5F8346DDE976
:103D20000E87994616468A469000FFF745F805002B
:103D30001AD05C20FFF740F8040012D02563002160
:103D4000CDE90241CDE900874B46324651465846FF
:103D5000FEF76CFD2046FEF721FC012004B0BDE813
:103D6000F09F2846FFF78EF94FF0FF30F6E700008E
:103D70000548416919B1006B18B100207047012056
:103D80007047022070470000000000200148C06812
:103D9000704700000000002010B5FFF7D5F901487A
:103DA000C06810BD000000202DE9F0412F4F002613
:103DB000386B40B1B869401CB861F86900B10126A0
:103DC0003046BDE8F081FD686D1CFD6011D1786B57
:103DD000006828B140F6622225A12BA0FCF76AFA00
:103DE000786BB96B7963B863386A401C3862FEF748
:103DF00007FFB86ADFF8A080854209D3786B0068B6
:103E000080B1786BC068C468606885420DD2B862C2
:103E10003868C06A00EB800158F821000128CCD92D
:103E20000126CAE74FF0FF30F1E7201DFFF776F8D3
:103E3000A06A18B104F11800FFF770F82046FDF7EA
:103E400031FCE06A01213A6981401143396100EB9C
:103E5000800108EB8100211DFFF799F8E06A3968BD
:103E6000C96A8842CAD30126C8E7000000000020C2
:103E70002E2E5C2E2E5C4672656552544F535C7438
:103E800061736B732E6300004572726F723A257313
:103E90002C25640D0A000000240100202DE9F041CA
:103EA00004004FF0000643D0234D29688C4205D012
:103EB00040F67A7221A127A0FCF7FCF9206D28B901
:103EC00040F67B721DA123A0FCF7F4F9206D401E83
:103ED0002065E26AE16C8A422AD048BB201DFFF7C8
:103EE0001DF8204F012650B9E06A00EB800157F819
:103EF000211021B9296906FA00F081432961214680
:103F00004A20FDF70BFCE06CE062C0F12000A061EC
:103F10002046FDF7C7FBE06A296986400E432E6103
:103F200000EB800007EB8000211DFFF730F8012631
:103F30003046BDE8F0810000000000202E2E5C2EEF
:103F40002E5C4672656552544F535C7461736B739B
:103F50002E6300004572726F723A25732C25640D32
:103F60000A000000240100202DE9F041C068C46867
:103F70002CB940F6FA3217A11CA0FCF79BF904F10A
:103F800018000746FEF7CAFF1C4D286B012660B1DA
:103F900039461B48FEF7FBFFE06A2968C96A884278
:103FA00016D90120EE61BDE8F081201DFEF7B6FFB5
:103FB0002046FDF777FBE06A2A6906FA00F1114313
:103FC0002961104900EB800001EB8000211DE1E731
:103FD0000020E8E72E2E5C2E2E5C4672656552545A
:103FE0004F535C7461736B732E6300004572726F84
:103FF000723A25732C25640D0A0000000000002091
:10400000CC030020240100202DE9F0472D4D002491
:104010002746286B28B940F668022BA130A0FCF790
:1040200049F9FEF7C1FF286B401E2863286BE8BBE7
:10403000A8682F490126C8B3A1F52A798846D8F87F
:10404000001001B3D8F80C00C46804F11800FEF7A2
:1040500065FF201DFEF762FF2046FDF723FBE06AA7
:104060002A6906FA00F11143296100EB800109EB8E
:104070008100211DFEF78BFFE06A2968C96A88422A
:10408000DDD3EE61DBE70CB1FEF7BAFDAC693CB104
:10409000FFF78AFE00B1EE61641EF9D10020A8612D
:1040A000E86918B101273807124900E004E0086008
:1040B000BFF34F8FBFF36F8FFEF7B2FF3846BDE8F7
:1040C000F0870000000000202E2E5C2E2E5C467231
:1040D000656552544F535C7461736B732E630000BB
:1040E0004572726F723A25732C25640D0A00000028
:1040F000CC03002004ED00E02DE9F0470746994687
:1041000016460D462C20DDF820A0FEF755FE0400D3
:1041100014D0B8464F46D1462DB94FF4B67209A116
:104120000EA0FCF7C7F8FEF7B1FA04F11801C4F8C5
:10413000008081E8E002201DFEF70EFF2046BDE86A
:10414000F08700002E2E5C2E2E5C46726565525460
:104150004F535C74696D6572732E63004572726FA4
:10416000723A25732C25640D0A0000001CB500244A
:10417000FEF78CFA0C48006868B10B491F20091D36
:10418000CDE9000100234FF4827208A10948FFF72E
:10419000C3FD040005D14FF4897207A10CA0FCF700
:1041A00089F820461CBD00003C000020546D7220A0
:1041B00053766300192D00082E2E5C2E2E5C46725D
:1041C000656552544F535C74696D6572732E63005C
:1041D0004572726F723A25732C25640D0A00000037
:1041E0002DE9FF47DDF830A0994690460D460600C0
:1041F0004FF0000705D14FF4C37212A117A0FCF7CE
:1042000059F81A4C206880B1CDE900580296062D65
:1042100011DAFFF7ADFD02284FF0000309D00022AC
:1042200069462068FFF704FB074604B03846BDE83E
:10423000F0875246F4E700234A466946FFF7D6FB6B
:10424000F2E700002E2E5C2E2E5C467265655254FD
:104250004F535C74696D6572732E63004572726FA3
:10426000723A25732C25640D0A0000003C000020E2
:10427000000000000000000000003031323334350F
:10428000363738394142434445460000212300086F
:104290009523000853595354454D564945573A20E4
:1042A000436F756C64206E6F74207265636F726407
:1042B000207461736B20696E666F726D6174696FD3
:1042C0006E2E204D6178696D756D206E756D62651D
:1042D00072206F66207461736B732072656163680E
:1042E00065642E000443000800000020E400000084
:1042F0006C010008E8430008E40000203468000076
:10430000880100080000000000000000000000001C
:10431000000000000000000000000000000000009D
:10432000000000000000000000000000000000008D
:10433000000000000000000000000000000000007D
:10434000000000000000000000000000000000006D
:104350000000000000000000AAAAAAAA00000000B5
:10436000000000000000000000000000000000004D
:10437000000000000000000000000000000000003D
:1043800000A24A0400000000000000000102030433
:1043900006070809000000000204060800000000EB
:1043A00001020304010203040607080900000000DB
:1043B00000000000000000000000000000000000FD
:1043C00000000000000000000000000000000000ED
:1043D00000000000000000000000000000000000DD
:0843E0000000000000000000D5
:0400000508000131BD
:00000001FF
